:100000000C9418090C9449090C9449090C94490959
:100010000C9449090C9449090C9449090C94490918
:100020000C9449090C9449090C9449090C94490908
:100030000C9449090C9449090C9449090C944909F8
:100040000C9449090C9449090C9449090C944909E8
:100050000C9449090C9449090C9449090C94742393
:100060000C9449090C945D170C9433170C944909AE
:100070000C9449090C9449090C9449090C944909B8
:100080000C9449090C9449090C9449090C944909A8
:100090000C9449090C9449090C9449090C94931740
:1000A0000C9449090C9449090C9449090C94490988
:1000B0000C9449090C9449090C9449090C94490978
:1000C0000C9449090C9449090C9449090C94490968
:1000D0000C9449090C9449090C9449090C94490958
:1000E0000C944909D01AD31AC21AC61ACC1A0A1B80
:1000F000D71ADB1AE11AE51AE91AEF1AF31AF71AF6
:100100000A1BFD1A011B051B0C94D50B0C94A015A2
:100110000C9467130C94AA140C94011B0C941D14DA
:100120000C94D71A0C94E91A0C94D0130C943D1328
:100130000C9473090C94C21A0C94F71A0C944B0982
:100140000C94EF1A0C940A1B0C94051B0C94CC1AFB
:100150000C94870C0C9436150C94AD140C949B2DB8
:100160000C94D8140C94D31A0C948A0C0C94D014BC
:100170000C94FD1A0C94860B0C945E090C94860C5E
:100180000C947D100C9476130C9405150C94981314
:100190000C94F31A0C940C100C94E11A0C94DB1AC6
:1001A0000C948A130C94AC140C94E51A0C94D01A89
:1001B0000C94AB140C94C61A0C94BC1400000000F0
:1001C000000000000000000000000000FFFF0F0022
:1001D00000040062080008080003000C01030B5A29
:1001E0000203060903031710040300230503001785
:1001F000060309630703090C08030C1009033222E4
:10020000100016001100010112000000130001008F
:1002100000013003010137020301000D800200617B
:100220000201B0C1FFFF3200010000010200000125
:1002300003003010090001000C0000009000008055
:100240000F000000100200001102EF001202000077
:1002500013028F01000500000105000002055F0088
:100260000104010004040000FFFF32000700000148
:10027000FFFF320000020000010200000000000049
:10028000000000000000000000000100A4000100C8
:10029000FFFF0A0060000027080008083000140271
:1002A00031001537320004063300160E34001122D7
:1002B0003500001536000785370007143800031491
:1002C00039002000900015001000100411003702C2
:1002D000290046002A00460007000000120089019C
:1002E00013000011FFFF96001200B9010100000188
:1002F0000200000203003010090001000A000000A3
:100300000D0000000E003000500000005100EF0012
:100310005200000053003F01610001006A0000002C
:10032000800000008100000082005F009200000158
:1003300093000107FFFF5000070000010100FF329A
:100340002800C0021010C10141C5040022804036BF
:100350000168B00100B102B011B40102B60302029B
:100360003BB701C63A0155F704A9512C821100FF91
:100370009629000100FF322800C002191AC1024567
:1003800000C20133C5020028B40102B60302023BD9
:10039000E00F1F25220B060A4EC6390000000000A0
:1003A00000E10F1F3F3F0F1F0F4649310509031C96
:1003B0001A00200036010A3A01551100FF322900C7
:1003C0000100FF7D1100FF14B00100B30402000022
:1003D00000B40100D003074218D103000710D20275
:1003E0000102D3020102D4020102C005103B000247
:1003F00011C103101088C50103C60102C80C0032E8
:1004000036450616377577540C00CC01003A015575
:100410001100FF782900FF190100FF322800F603C0
:10042000010100CF03008130ED0464031281E80371
:10043000851078CB05392C003402F70120EA020040
:1004400000B00100B102001BB40100C00121C101D4
:1004500011C5023F3CC701B5360148F20100260133
:1004600001E00F0F26240B0E0954A8460C17090FA4
:100470000700E10F00191B0410072A47390306067D
:1004800030380F1100FF9629003A01550100FF3264
:100490002800F603090103B00140B40100C00123A4
:1004A000C10110C5022B2BC701C0360188B1020063
:1004B0001BB701071100FF9629003A01550100FF03
:1004C0003228001100FF9629003A0155010028004A
:1004D0001100FF64B00100C10410100202C0060048
:1004E0003500000102C50104D2020104CA0100EA7C
:1004F00001803601483A01552A04000000EF2B0420
:100500000000018F30040000018F2900020708302D
:10051000050736000B07131201000001020000015D
:100520000300301008000202090000000C00000067
:100530000F000000000100000201000003010000A4
:10054000FFFFC8000001901101012702FFFF3200E8
:100550000201BD01FFFF32000301002D81020E00E8
:10056000FFFF320000020000010200000003000053
:100570000103070702030606050300000603000D3A
:100580000703060708030500090307000C03000022
:100590000D030A00100200001102EF001202000019
:1005A0001302AF0100040031010401000404000043
:1005B0000005000001050000020500000305000021
:1005C00004050000050500001000100011000006E1
:1005D0002000020007007301E500F078010000012F
:1005E00002000002030030100400000005000000BB
:1005F00008000702090000000A0000000C000000CB
:100600000D0000000F0000001000000011000700A6
:10061000120000001300000007000100FFFFC800E7
:100620001000901611002702FFFF320012000D008B
:10063000FFFF32001300001229000A002B000D00FA
:10064000FFFF320020000000210000003000000009
:1006500031000404320003003500050436000808A8
:100660003700070438000303390007073C0004057E
:100670003D000808500000005100EF00520000004B
:1006800053003F0160000027610001006A00000084
:100690008000000081000000820000008300000054
:1006A000840000008500000090001000920000000F
:1006B00007003301E5000080000001000100000197
:1006C00002000007030030100400000008000202CE
:1006D000090000000A0000000C0000000D000000EE
:1006E0000F000000100000001100070012000000C1
:1006F00013000000FFFF32001000B01711000700C8
:10070000FFFF0A0012003A01FFFF0A001300001A5F
:1007100029000C00FFFF0A00300000003100050531
:1007200032000400350006003600070737000501D7
:1007300038000200390007073C0004073D000708A5
:10074000500000005100EF005200000053003F0134
:10075000600000A7610001006A00000021000000A5
:1007600020000000800000008100000082000000E6
:10077000830000008400000085000000900010004D
:100780009200000093000300950010019700000004
:100790009800000007007301FFFF32000100FF32E4
:1007A00028003A01551100FF322900460C944100FF
:1007B000332345447712CC46820202000004020033
:1007C000EF060200000802013F0101061601C823DE
:1007D000039595FF2704020202022C0202023A044A
:1007E0000101F000FF50350238783E013840010F1A
:1007F0004101F019012D930106FF502001401D0316
:1008000007000444023C12FF501C0104FF50430146
:1008100080FF501B0108FF501B0110FF5090017F0B
:10082000260104FF5026012426012CFF5026013CFE
:10083000570102550100570100EA020020EC020CAA
:10084000C4E80138E90110F10101F20110400D0185
:100850000000100E2404500213191916500E1B31FB
:100860002F3F3F3E2F7B0906060C1DCC1B011B1A98
:10087000010124012F250157230188180134190192
:10088000010101001F0188FF051F0180FF031F01F7
:1008900090FF051F01D0FF05170105360100280153
:1008A00038FF2828013F1601180202000004020048
:1008B000EF060200000802013F01001100FF64364C
:1008C00001803A0155B2050C0C003333B70135BB3A
:1008D000012BC00104C20201FFC30111C40120C6E3
:1008E000010FD002A4A1E00ED000050E150D374374
:1008F000470915121619E10ED000050D0C062D44FE
:10090000400E1C1816192A04000000EF2B040000EA
:10091000013F2900FF0A00000100FFFF6400010001
:10092000000110009017600000A761000100460060
:100930000200130010801200FE8002000005030078
:10094000301030000303310003033200030333008F
:1009500000033400030035000303360014003700A1
:10096000030338000303390003033A0000033B008C
:1009700003003C0003033D000014920000029300BA
:10098000030390000D0801000001020000070300AE
:1009900030100400000008000203090000000A00F3
:1009A00000000C0000000D0000000F000000FFFF21
:1009B00078003000030331000303320003033300E7
:1009C0000003340003003500030336001400370031
:1009D000030338000303390003033A0000033B001C
:1009E00003003C0003033D000014600000A7610009
:1009F00001006A0000009000330095001001FF0024
:100A00000100FF000C00FF000000FFFF6400030076
:100A1000301007007301FFFF320000000100FFFFEC
:100A200064000100000110009017600000A7610041
:100A3000010046000200130010801200FE80020038
:100A400000050300301030000303310003033200BF
:100A500003033300000334000300350003033600B2
:100A600014003700030338000303390003033A007E
:100A700000033B0003003C0003033D000014920010
:100A800000029300030390000D0801000001020022
:100A900000070300301004000000080002030900F2
:100AA00000000A0000000C0000000D0000000F0014
:100AB0000000FFFF78003000030331000303320021
:100AC0000303330000033400030035000303360042
:100AD00014003700030338000303390003033A000E
:100AE00000033B0003003C0003033D0000146000D2
:100AF00000A7610001006A0000009000330095002B
:100B00001001FF000100FF000C00FF000000FFFFCC
:100B100064000300300007007301FFFF3200010092
:100B2000FFF02800B00100C0010A1100FF96290063
:100B30003A01550100FFF02800B001001100FF96B6
:100B400029003A015511001A001200213113006CDE
:100B5000001400494210000008FFFF0A0011001AAB
:100B600001FFFF0A0011001A03FFFF0A0011001A1B
:100B700007FFFF0A0011001A0FFFFF0A0011003AD9
:100B80000FFFFF1E000100280102000001030030DA
:100B90001007001210080003030B0000110C0000E6
:100BA000000F0001181500200007001200FFFF28A9
:100BB0000007001300070017003600EF00370000A1
:100BC0000038003F01390000000954465420696490
:100BD000656E7469666965723A2030780009496EFD
:100BE0006974696174696E67205446542E2E2E0014
:100BF00009496E697469616C697A696E6720494E4A
:100C0000412D3231392073656E736F722E2E2E0096
:100C1000506F776572206D6F6E69746F72202876E1
:100C2000657273696F6E20312E322E300000002203
:100C300000250028002B002E0031003400020100A6
:100C400000050108010B01000020002300260029F7
:100C5000002C002F003200000100000301060109F2
:100C60000105050505070508080808020202020A31
:100C70000A0808040404040101010101010101033F
:100C800003030303030303040707070C0C0C0C0CFA
:100C90000C0C0C0202020206060606060606060BED
:100CA0000B0B0B0B0B0B0B01021020200808102064
:100CB00040102040800201020108040201010204E8
:100CC00008102040808040201008040201800402A7
:100CD00001804020100804020108040201010204FE
:100CE0000810204080010204081020408000000A03
:100CF0000B02090C0D0E08070304010000000000A0
:100D000000000000000000000000000000000000E3
:100D100000000000000000000012111000000000A0
:100D200000000000000000000000000000000000C3
:100D300000000000000000003E5B4F5B3E3E6B4F3A
:100D40006B3E1C3E7C3E1C183C7E3C181C577D575D
:100D50001C1C5E7F5E1C00183C1800FFE7C3E7FF09
:100D60000018241800FFE7DBE7FF30483A060E269C
:100D700029792926407F050507407F05253F5A3CF4
:100D8000E73C5A7F3E1C1C08081C1C3E7F14227F37
:100D900022145F5F005F5F06097F017F006689950F
:100DA0006A606060606094A2FFA29408047E0408F8
:100DB00010207E201008082A1C08081C2A08081E7B
:100DC000101010100C1E0C1E0C30383E3830060E61
:100DD0003E0E06000000000000005F00000007005B
:100DE0000700147F147F14242A7F2A122313086417
:100DF0006236495620500008070300001C224100BB
:100E00000041221C002A1C7F1C2A08083E080800FA
:100E1000807030000808080808000060600020109A
:100E20000804023E5149453E00427F400072494954
:100E300049462141494D331814127F102745454535
:100E4000393C4A4949314121110907364949493656
:100E5000464949291E0000140000004034000000EB
:100E6000081422411414141414004122140802011D
:100E70005909063E415D594E7C1211127C7F494949
:100E800049363E414141227F4141413E7F494949E6
:100E9000417F090909013E414151737F0808087FDC
:100EA00000417F41002040413F017F081422417FE3
:100EB000404040407F021C027F7F0408107F3E417B
:100EC00041413E7F090909063E4151215E7F0919D2
:100ED0002946264949493203017F01033F404040EA
:100EE0003F1F2040201F3F4038403F6314081463D9
:100EF00003047804036159494D43007F4141410295
:100F000004081020004141417F04020102044040D6
:100F1000404040000307080020545478407F284494
:100F200044383844444428384444287F385454547E
:100F30001800087E090218A4A49C787F080404788D
:100F400000447D40002040403D007F1028440000C8
:100F5000417F40007C047804787C0804047838449D
:100F6000444438FC1824241818242418FC7C080451
:100F70000408485454542404043F44243C40402072
:100F80007C1C2040201C3C4030403C44281028441D
:100F90004C9090907C4464544C44000836410000CE
:100FA00000770000004136080002010204023C26DE
:100FB00023263C1EA1A161123A4040207A385454A5
:100FC0005559215555794122545478422155547828
:100FD0004020545579400C1E5272123955555559BE
:100FE000395454545939555454580000457C4100E3
:100FF00002457D420001457C407D1211127DF028A2
:101000002528F07C545545002054547C547C0A0912
:101010007F4932494949323A4444443A324A48487D
:10102000303A4141217A3A42402078009DA0A07D8B
:101030003D4242423D3D4040403D3C24FF24244847
:101040007E4943662B2FFC2F2BFF0929F620C088F1
:101050007E090320545479410000447D41304848C2
:101060004A32384040227A007A0A0A727D0D1931DC
:101070007D2629292F28262929292630484D402038
:10108000380808080808080808382F10C8ACBA2F14
:10109000102834FA00007B000008142A14222214BD
:1010A0002A1408AA005500AAAA55AA55AA000000A9
:1010B000FF00101010FF00141414FF001010FF00A8
:1010C000FF1010F010F0141414FC001414F700FFBB
:1010D0000000FF00FF1414F404FC141417101F1078
:1010E000101F101F1414141F00101010F000000027
:1010F000001F101010101F10101010F01000000032
:10110000FF101010101010101010FF10000000FF42
:10111000140000FF00FF00001F10170000FC04F483
:1011200014141710171414F404F40000FF00F7143B
:10113000141414141414F700F714141417141010C2
:101140001F101F141414F4141010F010F000001FDE
:10115000101F0000001F14000000FC140000F0101D
:10116000F01010FF10FF141414FF141010101F00C3
:10117000000000F010FFFFFFFFFFF0F0F0F0F0FFC5
:10118000FFFF0000000000FFFF0F0F0F0F0F38449C
:10119000443844FC4A4A4A347E02020606027E0271
:1011A0007E0263554941633844443C04407E201E1E
:1011B0002006027E020299A5E7A5991C2A492A1C4D
:1011C0004C7201724C304A4D4D303048784830BC3A
:1011D000625A463D3E494949007E0101017E2A2A64
:1011E0002A2A2A44445F444440514A444040444AE5
:1011F00051400000FF0103E080FF000008086B6B16
:10120000083612362436060F090F0600001818009B
:1012100000001010003040FF0101001F01011E00FE
:10122000191D1712003C3C3C3C00000000009B2DA7
:1012300011241FBECFEFD1E2DEBFCDBF00E00CBF57
:1012400025E0ACEAB3E001C01D92AC39B207E1F78A
:1012500013E0A0E0B2E0E6E8F5E600E00BBF02C074
:1012600007900D92AC3AB107D9F719E0C8E1D9E07F
:1012700000E006C021970109802FFE010E947D2F0A
:10128000C731D10780E00807A9F70E94BE230C945C
:10129000C1320C940000EF92FF920F931F93DC0178
:1012A000ED91FC910288F389E02D780101E010E0D6
:1012B00019951F910F91FF90EF900895EF92FF9273
:1012C0000F931F93DC01ED91FC910288F389E02DCF
:1012D0007801890121E030E019951F910F91FF906D
:1012E000EF90089508952F923F924F925F926F92E0
:1012F0007F928F929F92AF92BF92CF92DF92EF92A6
:10130000FF920F931F93CF93DF93CDB7DEB769970B
:101310000FB6F894DEBF0FBECDBF9C838B83DC017C
:1013200057969C91892F817090FF04C0B1E0B90F4E
:10133000BF8301C09F836A3059F4EB81FC813489FB
:10134000208D86859785329F800D911D112440C187
:101350006D3009F441C1AB81BC811C962D903C904D
:101360001D9781119F5FEB81FC81F98FE88F2085AC
:101370003185221633060CF009C146845784228534
:101380003385421653060CF001C1C488292F30E082
:10139000398B288BAC2CB12CA1019C9D400D511D8B
:1013A0001124CA01181619060CF0F0C0808DD20164
:1013B000C89EA00DB11D11241A161B060CF0E6C024
:1013C0000288F389E02DFC83EB83A88DB98D5096BC
:1013D0000D90BC91A02DBE83AD831982BF86AE86D1
:1013E000E62FF0E0FF8BEE8BF9818F2FFF0F990B2B
:1013F000A88DB98D58962C9126952695269530E086
:10140000821793070CF0C2C023E0880F991F2A951A
:10141000E1F7F201E80FF91FFB87EA874E855F8548
:10142000489F9001499F300D589F300D1124C901EC
:10143000840D951D9B8B8A8B1A823896FD8BEC8BC5
:101440009A81292F990F330BA889B9892A173B074D
:101450000CF098C0E88DF98D4789842F90E028170B
:10146000390771F1518DEE89FF89E51BF109E89F7C
:10147000B001E99F700DF89F700D1124A88DB98DF2
:1014800058968C91869FF001879FF00D1124F7FDEF
:10149000379683E0F595E7958A95E1F759815403EE
:1014A000C0011124E80FF91FE20FF31FA88DB98DB9
:1014B0005A968D919C915B97E80FF91FD49001C0CB
:1014C000D12C4C2D5A815403C0011124D101A80FF5
:1014D000B91FB987A8876A887B888A849B84F101B1
:1014E000E20FF31FFD87EC87D0FE13C0A88DB98DE6
:1014F000ED91FC91B1E0CB1206C00084F185E02DA6
:101500002D813E8119C00288F389E02DED80FE8097
:101510001FC0EB81FC812D813E81E217F30701F1B1
:10152000A88DB98DED91FC91B1E0CB120CC0008477
:10153000F185E02D2B813C81A4016C857D85888D12
:10154000998D19950DC00288F389E02DEB80FC8000
:1015500085019501A30168857985888D998D1995F7
:10156000D694EFEF8E1A9E0A2E853F85620E731E6B
:101570004C895D894815590509F0B6CF5A815F5FDE
:101580005A835ECF89818F5F89832ECFA88DB98DD5
:1015900054966C91BF816B9FC0011124E88DF98D29
:1015A00024853585280F391F3587248746894423AC
:1015B00099F040855185DA01A81BB90BA217B30732
:1015C0005CF4208D86859785629F800D911D112486
:1015D000978786871586148681E090E069960FB616
:1015E000F894DEBF0FBECDBFDF91CF911F910F9159
:1015F000FF90EF90DF90CF90BF90AF909F908F9033
:101600007F906F905F904F903F902F900895EF9252
:10161000FF920F931F93DC011A960D911C911B975B
:1016200018962D913C911997ED91FC910288F389C0
:10163000E02D7B0140E050E060E070E019951F91E3
:101640000F91FF90EF9008956F927F928F929F92EB
:10165000AF92BF92CF92DF92EF92FF920F931F93C0
:10166000CF93DF936C015A014801EB013B01620EFD
:10167000731EC615D70574F4D601ED91FC91048450
:10168000F585E02D87019401A501BE01C6011995DC
:101690002196EFCFDF91CF911F910F91FF90EF90A7
:1016A000DF90CF90BF90AF909F908F907F906F9082
:1016B0000895EF92FF920F931F93260F371F21502B
:1016C0003109DC01ED91FC910284F385E02D780174
:1016D0008A0119951F910F91FF90EF900895EF9255
:1016E000FF920F931F93240F351F21503109DC0106
:1016F000ED91FC910284F385E02D780189019B0135
:1017000019951F910F91FF90EF9008956F927F921E
:101710008F929F92AF92BF92CF92DF92EF92FF9201
:101720000F931F93CF93DF93EC014B015A01690193
:101730003801E881F9810684F785E02D8701199544
:10174000A501460D571D41505109E881F9810684D4
:10175000F785E02D9601B401CE011995E881F98154
:101760000484F585E02D9301A501B401CE011995FE
:10177000C80CD91CB60161507109E881F981048453
:10178000F585E02D9301A501CE011995DF91CF914B
:101790001F910F91FF90EF90DF90CF90BF90AF908F
:1017A0009F908F907F906F9008952F923F924F92CD
:1017B0005F926F927F928F929F92AF92BF92CF92E1
:1017C000DF92EF92FF920F931F93CF93DF9300D09E
:1017D00000D0CDB7DEB72C017E836D836A0159013D
:1017E000C801FC82EB824801841A950A97FE03C067
:1017F00091948194910835012D813E81621A730A7A
:1018000077FE03C0719461947108681479045CF4E4
:101810003A2D2B2D5C01832F922F3D812E81DE826C
:10182000CD82C32ED22EAD81BE81AA16BB065CF43A
:101830003C2D2D2D6C01832F922F3D812E81BE8258
:10184000AD82A32EB22E85012D813E81021B130B8A
:101850001C012C183D0837FE03C031942194310837
:10186000780117FF03C03FEFE31AF30AF594E794FA
:10187000C816D9062CF08FEF9FEF9A83898304C096
:10188000A1E0B0E0BA83A9832D813E81A216B30600
:1018900024F1D201ED91FC910084F185E02D2B81A2
:1018A0003C816814790424F44D815E81B60103C043
:1018B000A6016D817E81C2011995E218F308F7FE39
:1018C00006C029813A81C20ED31EE00EF11E8D8121
:1018D0009E8101969E838D83D7CF26960FB6F8946E
:1018E000DEBF0FBECDBFDF91CF911F910F91FF9053
:1018F000EF90DF90CF90BF90AF909F908F907F90B0
:101900006F905F904F903F902F900895089580E0E2
:1019100090E00895EF92FF920F931F93DC011A96C7
:101920000D911C911B9718962D913C911997ED9153
:10193000FC910288F389E02D7B0140E050E060E0FB
:1019400070E019951F910F91FF90EF9008950F93FC
:101950001F93CF93DF93889A889888988898E0E0BF
:10196000F1E060810CB1A2B38CB14081889A889A71
:1019700088988898889820813CB192B3DCB1C08166
:10198000889A607670E055E0759567955A95E1F70D
:10199000007310E01595079515950795602B712B31
:1019A000A072B0E0B595A7956A2B7B2BE82FE87065
:1019B000F0E0EE0FFF1FEE0FFF1F6E2B7F2B487125
:1019C00088E0489FA0011124462B572B542F442711
:1019D0002076622F629566956770232F2073269577
:1019E0002695822F862B9072292F30E035952795EA
:1019F000282BD870DD0FDD0F2D2BC87188E0C89F14
:101A0000E00111242C2BCA01822BDF91CF911F9171
:101A10000F910895FF920F931F93CF93DF938B98AD
:101A20008A98E2E0F1E0208127782083A5982EB102
:101A3000277C2EB96081292F3327A90143705527B0
:101A400075E0440F551F7A95E1F7462B40836EB140
:101A5000A9014C705527440F551F440F551F462BA5
:101A60004EB964B3A90140715527440F551F462B49
:101A700044BB6EB1A90140725527559547955595C0
:101A80004795462B4EB94081207C3327D3E03595CE
:101A90002795DA95E1F7242B20838998899A20816C
:101AA00027782083A5982EB1277C2EB940819C01F0
:101AB0002370332715E0220F331F1A95E1F7242BEB
:101AC00020834EB19C012C703327220F331F220F2D
:101AD000331F242B2EB944B39C0120713327220FCE
:101AE000331F242B24BB4EB19C0120723327359524
:101AF000279535952795242B2EB92081807C992711
:101B000073E0959587957A95E1F7822B8083899884
:101B1000899AC1E0D1E08881877888839D988DB1CA
:101B2000877C8DB98A9A0E94A70C8C010E94A70C11
:101B3000F82E0E94A70C889A8B9A888188678883E0
:101B40009D9A8DB188638DB920E030E0302F222737
:101B50001127002740E050E05F2D60E070E0042B8B
:101B6000152B262B372B492F50E060E070E0CB017E
:101B7000BA01602B712B822B932BDF91CF911F9198
:101B80000F91FF9008958B988A98209102012778F1
:101B900020930201A5982EB1277C2EB970910201E5
:101BA000292F3327F901E370FF27A5E0EE0FFF1F70
:101BB000AA95E1F7E72BE09302017EB1F901EC7001
:101BC000FF27EE0FFF1FEE0FFF1FE72BEEB974B3D9
:101BD000F901E071FF27EE0FFF1FE72BE4BB7EB199
:101BE000F901E072FF27F595E795F595E795E72B65
:101BF000EEB970910201207C3327E3E035952795FB
:101C0000EA95E1F7272B209302018998899A209180
:101C10000201277820930201A5982EB1277C2EB9C6
:101C2000709102019C0123703327F5E0220F331FCE
:101C3000FA95E1F7272B209302017EB19C012C70CD
:101C40003327220F331F220F331F272B2EB974B3D4
:101C50009C0120713327220F331F272B24BB7EB119
:101C60009C01207233273595279535952795272B8D
:101C70002EB9709102019C01207C3327F3E0359549
:101C80002795FA95E1F7272B209302018998899AE5
:101C9000FA017FEF760F16160CF0C9C021918A9ACF
:101CA00030910201377830930201A5983EB1377C1C
:101CB0003EB960910201322F3370A0E23A9FA00139
:101CC0001124462B409302016EB1322F3C70A4E0E8
:101CD0003A9FA0011124462B4EB944B3322F3071E4
:101CE000330F342B34BB6EB1322F3072432F50E0A0
:101CF0005595479555954795462B4EB9309102011C
:101D0000207C269526952695232B209302018998E1
:101D1000899A711102C0672FBCCF2091AC03222396
:101D2000D1F301968A98209102012778209302012D
:101D3000A5982EB1277C2EB960910201292F332757
:101D4000A90143705527A5E0440F551FAA95E1F757
:101D5000462B409302016EB1A9014C705527440FE8
:101D6000551F440F551F462B4EB964B3A90140714E
:101D70005527440F551F462B44BB6EB1A901407235
:101D800055275595479555954795462B4EB9409102
:101D90000201207C332753E0359527955A95E1F7CA
:101DA000242B209302018998899A20910201277897
:101DB00020930201A5982EB1277C2EB940910201F3
:101DC0009C012370332765E0220F331F6A95E1F7EA
:101DD000242B209302014EB19C012C703327220F3B
:101DE000331F220F331F242B2EB944B39C012071C3
:101DF0003327220F331F242B24BB4EB19C012072AA
:101E000033273595279535952795242B2EB9409165
:101E100002019C01207C332763E0359527956A9564
:101E2000E1F7242B209302018998899A74CF8B9A29
:101E300008958B988A98E2E0F1E08081877880832A
:101E4000A5988EB1877C8EB9A081872F99279C0198
:101E500023703327B5E0220F331FBA95E1F72A2B01
:101E60002083AEB19C012C703327220F331F220F29
:101E7000331F2A2B2EB9A4B39C0120713327220FC4
:101E8000331F2A2B24BBAEB19C012072332735951A
:101E90002795359527952A2B2EB92081807C992767
:101EA00033E0959587953A95E1F7822B8083899861
:101EB000899A808187788083A5988EB1877C8EB936
:101EC0002081CB0183709927A5E0880F991FAA95DF
:101ED000E1F7822B80832EB1CB018C709927880F7C
:101EE000991F880F991F822B8EB924B3CB01807163
:101EF0009927880F991F822B84BB2EB1CB0180724A
:101F000099279595879595958795822B8EB9808190
:101F1000607C7727B3E075956795BA95E1F7682BF4
:101F200060838998899A8A9A808187788083A59826
:101F30008EB1877C8EB96081852F99279C01237093
:101F4000332775E0220F331F7A95E1F7262B208384
:101F50006EB19C012C703327220F331F220F331FC9
:101F6000262B2EB964B39C0120713327220F331F17
:101F7000262B24BB6EB19C01207233273595279503
:101F800035952795262B2EB92081807C9927A3E0B3
:101F900095958795AA95E1F7822B80838998899AF0
:101FA000808187788083A5988EB1877C8EB92081C7
:101FB000CA0183709927B5E0880F991FBA95E1F798
:101FC000822B80832EB1CA018C709927880F991FAC
:101FD000880F991F822B8EB924B3CA01807199276B
:101FE000880F991F822B84BB2EB1CA01807299275A
:101FF0009595879595958795822B8EB98081407CA4
:102000005527A3E055954795AA95E1F7482B4083BE
:102010008998899A8B9A0895CF92DF92EF92FF92D6
:102020000F931F93CF93DF9300D01F92CDB7DEB7EE
:102030008C017A01690177FD53C057FD51C0FC0145
:1020400080859185681779070CF04AC08285938551
:10205000481759070CF044C0F801848D958D8732DC
:10206000934961F4F8018589823021F4F0E2EF0EA2
:10207000F11C04C0833011F4605E7F4FF80124A985
:1020800084A195A120FF19C079836A837B836C8327
:10209000AE014F5F5F4F64E090E00E94C30DF80116
:1020A00086A1F982EA82FB82EC82AE014F5F5F4F2C
:1020B00064E090E00E94C30D0CC0AB01BC01C801FC
:1020C0000E94190FF80166A177A1A701C8010E941B
:1020D000190FF80160A571A5A601C8010E94190F8A
:1020E0000F900F900F900F90DF91CF911F910F9154
:1020F000FF90EF90DF90CF900895EF92FF920F93B3
:102100001F93CF93DF93CDB7DEB72A970FB6F8941E
:10211000DEBF0FBECDBF7C01862F8370F701858B9C
:10212000962F917060FF03C02681378103C0F701AD
:1021300024813581F70131872087992319F0248183
:10214000358103C0F70126813781F7013387228764
:10215000823041F0833041F0813011F088E405C0D5
:1021600088E203C088E901C088EF8A87F70124A9C3
:1021700035A930FF03C08A8580588A8731FF04C0A3
:102180009A8580E489278A8733FF04C09A8588E08E
:1021900089278A87F701848D958D20FFA9C0843116
:1021A000F8E69F07F9F49A85892F881F8827881FEA
:1021B0008295880F880F807C96FD02C020E001C0C8
:1021C00020E298729A871F828260822B88878BE335
:1021D0008987AE01495F5F4F63E086EB90E00E9424
:1021E000C30D5CC0833629E1920761F0813834E980
:1021F000930741F0813145E1940721F08138E5E111
:102200009E0721F52A8527FF02C021602A872A859B
:1022100026FF02C022602A878336F9E19F0719F45E
:102220008A858F7311C0813824E9920721F08138A3
:1022300035E1930719F42A852F722A878131954158
:1022400069F58A858F7E806C8A8728C02091AC03CF
:10225000222321F142E050E0F70155A344A326E0F8
:1022600030E037A326A362E270E071A760A753A70E
:1022700042A744E050E055A744A737A726A728E087
:1022800030E031AB20AB82359245E9F48A8584FD9C
:1022900002C0826001C086608A8715C02AE230E0F1
:1022A000F70135A324A38BE290E097A386A34CE229
:1022B00050E051A740A733A722A735A724A797A787
:1022C00086A791AB80AB8091AC03811103C086E3FC
:1022D00090E002C086E190E0AE01465F5F4F61E0B2
:1022E0000E94C30D8A8590E0F70191A380A3CDC021
:1022F0002A858339F7E79F0709F448C050F48435ED
:1023000041E0940781F08032E4E59E0709F073C054
:102310003DC08632F3E99F07C9F1893035EB930759
:1023200009F069C033C087E390E0F70193A782A763
:1023300086E390E095A784A789E390E097A786A716
:1023400088E390E091AB80AB80E290E095A384A31A
:1023500081E290E097A386A382E290E091A780A714
:10236000822F022E000C990B8827990F881F99271E
:10237000982F8827990F26FD03C040E050E002C047
:1023800040E051E08862482B592B67C040E052E0A2
:10239000F70155A344A341E052E057A346A342E00E
:1023A00052E051A740A740E152E053A742A741E1C4
:1023B00052E055A744A742E152E057A746A743E1A0
:1023C00052E051AB40AB27FD03C020E030E002C03B
:1023D00020E030E88632F3E99F0731F080329445FF
:1023E00019F040E05AE602C040E055E3422B532B7F
:1023F00060E074E027C080E290E0F70195A384A339
:1024000081E290E097A386A382E290E091A780A763
:1024100080E590E093A782A781E590E095A784A747
:1024200082E590E097A786A783E590E091AB80AB2B
:1024300027FD03C040E050E002C040E050E8576292
:1024400060E670E0C7010E94190F8A8586FD03C00F
:1024500040E050E002C040E051E061E070E0C701C0
:102460000E94190F8A8585FD03C040E050E002C03C
:1024700048E050E083FD50614063F70151A340A361
:1024800063E070E0C7010E94190FF701858980FFA2
:102490001CC084A995A992FD18C084A195A126A16C
:1024A00037A135A324A397A386A382A593A526A528
:1024B00037A533A722A797A786A784A595A520A906
:1024C00031A935A724A791AB80ABF701028513850D
:1024D00001501109208531852150310940E050E03B
:1024E00060E070E0C7010E94681BF70146815781D8
:1024F000848D958D8732F3E99F0741F4F701258993
:102500002250223018F400E210E002C000E010E097
:102510008732F3E99F0729F022273327201B310B4D
:1025200004C020E230E0201B310BF70164A960FFFA
:1025300048C01982102F0A835B834C833D832E830E
:102540008091AC03811103C083E390E002C08EE070
:1025500090E0AE014F5F5F4F66E00E94C30D1982AD
:102560001A838091AC03811103C087E390E002C01D
:1025700084E190E0AE014F5F5F4F62E00E94C30DC7
:102580008091AC03882389F01982F701848D958DA1
:102590008734934819F081E090E002C088E190E030
:1025A000AE014F5F5F4F61E009C0F70184A980FF72
:1025B00057C040E050E060E083E190E00E94C30D2E
:1025C0004FC08339F7E79F0779F1F8F4803234E59B
:1025D000930751F18338E7E79E0711F18435914065
:1025E00081F5400F511F4150510961E370E0C7016F
:1025F0000E94190FA80162E370E0C7010E94190F41
:1026000040E050E063E370E028C0863223E992079F
:1026100059F0893035EB930739F08033924889F4CB
:10262000F701468D578D11C0F701468D578D4260D9
:1026300061E074E0C7010E94190FA80164E074E032
:102640000CC0F701468D578D426061E670E0C7010E
:102650000E94190FA8016AE670E0C7010E94190FD5
:102660002A960FB6F894DEBF0FBECDBFDF91CF9193
:102670001F910F91FF90EF900895CF92DF92EF920C
:10268000FF920F931F93CF93DF936C017A018B011D
:10269000C0E0D0E0CE15DF0581F0D8016D918D014D
:1026A000D601ED91FC910190F081E02DC6011995C4
:1026B000892B11F02196EECF7E01C701DF91CF91DA
:1026C0001F910F91FF90EF90DF90CF900895FC0144
:1026D000538D448D252F30E0842F90E0821B930B87
:1026E000541710F0CF96089501970895FC01918D2D
:1026F000828D981761F0828DDF01A80FB11D5D9664
:102700008C91928D9F5F9F73928F90E008958FEFD1
:102710009FEF0895FC01918D828D981731F0828D85
:10272000E80FF11D858D90E008958FEF9FEF0895DC
:10273000FC01918D228D892F90E0805C9F4F821B40
:1027400091098F739927089581EA94E00E94981364
:1027500021E0892B09F420E0822F0895FC01848D6B
:10276000DF01A80FB11DA35ABF4F2C91848D90E0BB
:1027700001968F739927848FA689B7892C93A08996
:10278000B1898C91837080648C93938D848D981320
:1027900006C00288F389E02D80818F7D80830895B3
:1027A000EF92FF920F931F93CF93DF93EC0181E0A1
:1027B000888F9B8D8C8D981305C0E889F98980815D
:1027C00085FD26C0F62E0B8D10E00F5F1F4F0F7397
:1027D0001127E02E8C8DE8120CC00FB607FCFACF43
:1027E000E889F989808185FFF5CFCE010E94AE137B
:1027F000F1CF8B8DFE01E80FF11DE35AFF4FF08200
:102800009FB7F8940B8FEA89FB89808180620AC0A8
:102810009FB7F894EE89FF896083E889F989808100
:102820008370806480839FBF81E090E0DF91CF91CF
:102830001F910F91FF90EF900895CF93DF93EC01DC
:10284000888D8823C9F0EA89FB89808185FD05C0D0
:10285000A889B9898C9186FD0FC00FB607FCF5CF0A
:10286000808185FFF2CFA889B9898C9185FFEDCF52
:10287000CE010E94AE13E7CFDF91CF91089580E0A3
:1028800090E0892B21F00E94A413811125C080E0E3
:1028900090E0892B41F080E090E0892B21F00E94AC
:1028A000000081111CC080E090E0892B41F080E0A5
:1028B00090E0892B21F00E940000811113C080E07C
:1028C00090E0892BA1F080E090E0892B81F00E94BC
:1028D000000081110AC008950E940000D8CF0E9414
:1028E0000000E1CF0E940000EACF0C9400000895A0
:1028F00085ED8093BC008091BC0084FDFCCF1092DC
:102900007A04089540912B04262F30E0240F311DC6
:1029100021323105DCF420917A042430C9F4FC0121
:1029200080E090E0861758F430912B042191DC016F
:10293000A55FBB4FA30FB11D2C930196F3CF8091E0
:102940002B04680F60932B0480E0089581E00895C4
:1029500082E00895089508950895E0917C0480919F
:102960007B04E81730F4F0E0E358FB4F808190E0FF
:1029700008958FEF9FEF089590917C0480917B04E0
:10298000981750F4E92FF0E0E358FB4F208130E036
:102990009F5F90937C0402C02FEF3FEFC901089521
:1029A00080917B0490E020917C04821B9109089522
:1029B000CF92DF92EF92FF920F931F93CF93DF930B
:1029C0007C01CB018A012091A004222389F0EB0134
:1029D0006B01C40ED51ECC15DD0569F06991D701D8
:1029E000ED91FC910190F081E02DC7011995F3CF95
:1029F000642F0E948214C801DF91CF911F910F9123
:102A0000FF90EF90DF90CF900895CF93DF931F92C8
:102A1000CDB7DEB769832091A0042223D1F02091A5
:102A20009D04203240F021E030E0FC01338322831A
:102A300080E090E015C080919E04E82FF0E0E55121
:102A4000FC4F998190838F5F80939E0480939D04B7
:102A500005C061E0CE0101960E94821481E090E001
:102A60000F90DF91CF9108950E94AC32CF93DF9306
:102A70001F92CDB7DEB7FC0134A925A9229521709C
:102A80006227462F50E0578F468F30FF2DC0209190
:102A9000AC032223E1F0848D958D8734F3E89F0702
:102AA00019F08235924531F4611102C082E007C00D
:102AB00086E005C0611102C08AE001C088E0898318
:102AC000AE014F5F5F4F61E081E090E00AC06111AD
:102AD00003C080E290E002C081E290E040E050E07C
:102AE00060E00E94C30D28C0FC01248D358D233980
:102AF000F7E73F07C9F040F42435E1E03E0761F015
:102B000020323445A9F410C0263263E9360761F05B
:102B10002930354B69F408C0440F551F440F551F29
:102B2000436167E070E006C0426061E074E002C0AB
:102B300061E670E00E94190F0F90DF91CF91089528
:102B4000AF92BF92CF92DF92EF92FF920F931F93BB
:102B5000CF93DF936C0137FF05C0620F731F319570
:102B600021953109260F371F77FF02C060E070E022
:102B7000D6011896ED91FC9119972E173F070CF48A
:102B8000F9015F01A61AB70A17FF05C0400F511FD0
:102B9000119501951109CA01800F911F57FF02C0BD
:102BA00040E050E0D6011A960D911C911B978017BA
:102BB00091070CF48C01E801C41BD50B01501109DD
:102BC0009F0121503109C6010E94681B8B988A9889
:102BD000F60180A591A5209102012778209302019A
:102BE000A5982EB1277C2EB960910201292F332799
:102BF000A9014370552705E0440F551F0A95E1F7D9
:102C0000462B409302016EB1A9014C705527440F29
:102C1000551F440F551F462B4EB964B3A90140718F
:102C20005527440F551F462B44BB6EB1A901407276
:102C300055275595479555954795462B4EB9409143
:102C40000201207C3327A3E035952795AA95E1F76B
:102C5000242B209302018998899A209102012778D8
:102C600020930201A5982EB1277C2EB94091020134
:102C70009C0123703327B5E0220F331FBA95E1F78B
:102C8000242B209302014EB19C012C703327220F7C
:102C9000331F220F331F242B2EB944B39C01207104
:102CA0003327220F331F242B24BB4EB19C012072EB
:102CB00033273595279535952795242B2EB92091C7
:102CC0000201807C992763E0959587956A95E1F7E5
:102CD000822B809302018998899AAC16BD062CF448
:102CE0009A2D8B2D5E01C92FD82F8A9A8F2D992767
:102CF0009C01237033272295220F207EAC014C705B
:102D00005527342F330F330FAC0140715527440F33
:102D1000BC017695679576956795562F587063E058
:102D2000969587956A95E1F78871B7016370772763
:102D3000962F9295990F907EB7016C707727660F4A
:102D4000660FF701E071FF277E2F770FD701B69549
:102D5000A795B695A795A870F701B3E0F695E79506
:102D6000BA95E1F71E2F18711C161D060CF041C014
:102D7000F501B0910201B778B0930201A598BEB1F8
:102D8000B77CBEB9B0910201B22BB0930201BEB1C3
:102D9000B32BBEB9B4B3B42BB4BBBEB1B52BBEB963
:102DA000B0910201B82BB09302018998899AB09131
:102DB0000201B778B0930201A598BEB1B77CBEB945
:102DC000B0910201B92BB0930201BEB1B62BBEB9CE
:102DD000B4B3B72BB4BBBEB1BA2BBEB9B09102012C
:102DE000B12BB09302018998899A319711F62197F6
:102DF000BBCF8B9AD601D4968C91D49780FD13C00B
:102E00001A960D911C911B970150110918962D913E
:102E10003C9119972150310940E050E060E070E0AA
:102E2000C6010E94681BDF91CF911F910F91FF9007
:102E3000EF90DF90CF90BF90AF900895611571052E
:102E400079F0FB0101900020E9F73197AF01461BB3
:102E5000570BDC01ED91FC910280F381E02D199478
:102E600080E090E008951F920F920FB60F92112408
:102E70000BB60F922F933F934F935F936F937F9374
:102E80008F939F93AF93BF93EF93FF9381EA94E067
:102E90000E94AE13FF91EF91BF91AF919F918F91DF
:102EA0007F916F915F914F913F912F910F900BBE4A
:102EB0000F900FBE0F901F9018951F920F920FB694
:102EC0000F9211240BB60F922F938F939F93EF9332
:102ED000FF93E091B104F091B2048081E091B704D6
:102EE000F091B80482FD12C090818091BA048F5F86
:102EF0008F732091BB04821751F0E091BA04F0E087
:102F0000EF55FB4F958F8093BA0401C08081FF91EC
:102F1000EF919F918F912F910F900BBE0F900FBE4D
:102F20000F901F9018951F920F920FB60F921124B9
:102F30000BB60F922F933F934F935F936F937F93B3
:102F40008F939F93AF93BF93EF93FF938091B900BB
:102F5000887F803609F49CC068F5883209F45BC02C
:102F600090F4803109F454C038F4882309F4F6C091
:102F7000883009F44DC0F6C0883109F44CC0803265
:102F800009F45DC0EFC0803409F468C048F48033B0
:102F900009F455C0883309F0E5C080937804D8C09F
:102FA000803509F44FC0883509F45DC0883409F0D4
:102FB000D9C0D6C0883909F4C7C0A8F4883709F445
:102FC00067C038F4883609F463C0803709F460C0FC
:102FD000C9C0883809F4B8C0803909F45FC08038A6
:102FE00009F0C0C05BC0803B09F486C038F4803A69
:102FF00009F466C0883A09F47FC0B4C0803C09F483
:10300000A7C0883C09F4A4C0883B09F48AC0AAC0C0
:103010008091750410C09091770480917604981780
:1030200070F5E091770481E08E0F80937704F0E0F3
:10303000EC5AFB4F80818093BB0085EC86C0809367
:1030400078048EC0E091770481E08E0F809377043E
:103050008091BB00F0E0EC5AFB4F808390917704A5
:10306000809176046EC0E091770481E08E0F8093AA
:1030700077048091BB00F0E0EC5AFB4F8083809195
:10308000790481116DC081E08093740484EA61C089
:1030900083E080937A0410924D04CFCF80914D0449
:1030A000803208F051C0E0914D0481E08E0F809392
:1030B0004D048091BB00F0E0E35DFB4F8083BDCF0A
:1030C00085EC8093BC0010927A0480914D0480328C
:1030D00030F4E0914D04F0E0E35DFB4F108260912D
:1030E0004D0470E0E0915004F09151048DE294E0C1
:1030F000199510924D0436C084E080937A041092A2
:103100002C0410922B04E0914E04F0914F04199579
:1031100080912B04811105C081E080932B041092D3
:103120000B04E0912C0481E08E0F80932C04F0E0DE
:10313000E55FFB4F80818093BB0090912C048091D0
:103140002B04981708F479CF85E88093BC000AC057
:1031500085EC8093BC0010927A0404C0109278042D
:103160000E947814FF91EF91BF91AF919F918F9141
:103170007F916F915F914F913F912F910F900BBE77
:103180000F900FBE0F901F90189510927A0481E057
:10319000809379041092740461E084E10E943D1DE3
:1031A00061E085E10E943D1DE9EBF0E080818E7FCA
:1031B000808380818D7F808388E48093B80085E45C
:1031C0008093BC00089530919D04313208F04AC0CC
:1031D00080917A048111FCCF90919F0422E020938A
:1031E0007A04609379042FEF209378041092770487
:1031F00030937604EBEEF3E0A4E5B4E020E0321780
:1032000021F041914D932F5FFACF109275042091D8
:103210007504990F922B90937504909174049130DA
:1032200061F410927404909175049093BB00909196
:10323000BC0093FDF8CF95EC01C095EE9093BC00D7
:1032400090917A049230E1F3909178049F3F79F065
:1032500080917804803241F080917804803331F09D
:1032600084E005C081E003C082E001C083E01092E9
:103270009E0410929D041092A00408950F931F9332
:10328000CF93DF93EC018B01101611060CF01CC1DB
:10329000FE01859194912496FE0132976591749177
:1032A0008F3F2FEF920729F480E090E00E941E1ECE
:1032B00008C18B988A9820910201277820930201F7
:1032C000A5982EB1277C2EB9E0910201292F332732
:1032D000A90143705527F5E0440F551FFA95E1F712
:1032E0004E2B40930201EEB1A9014C705527440FBB
:1032F000551F440F551F4E2B4EB9E4B3A901407121
:103300005527440F551F4E2B44BBEEB1A901407207
:10331000552755954795559547954E2B4EB9409154
:103320000201207C3327A3E035952795AA95E1F784
:10333000242B209302018998899A209102012778F1
:1033400020930201A5982EB1277C2EB9409102014D
:103350009C0123703327B5E0220F331FBA95E1F7A4
:10336000242B209302014EB19C012C703327220F95
:10337000331F220F331F242B2EB944B39C0120711D
:103380003327220F331F242B24BB4EB19C01207204
:1033900033273595279535952795242B2EB92091E0
:1033A0000201807C9927A3E095958795AA95E1F77E
:1033B000822B809302018998899A8A9A80910201CE
:1033C000877880930201A5988EB1877C8EB9409151
:1033D0000201872F99279C012370332755E0220F84
:1033E000331F5A95E1F7242B209302014EB19C0123
:1033F0002C703327220F331F220F331F242B2EB99B
:1034000044B39C0120713327220F331F242B24BB8C
:103410004EB19C0120723327359527953595279518
:10342000242B2EB920910201807C9927B3E0959539
:103430008795BA95E1F7822B809302018998899A42
:1034400080910201877880930201A5988EB1877CD4
:103450008EB920910201CB018370992735E0880F46
:10346000991F3A95E1F7822B809302012EB1CB018F
:103470008C709927880F991F880F991F822B8EB9FE
:1034800024B3CB0180719927880F991F822B84BBAD
:103490002EB1CB0180729927959587959595879543
:1034A000822B8EB980910201607C7727F3E07595BD
:1034B0006795FA95E1F7682B609302018998899ADC
:1034C0008B9A04501109E0CEDF91CF911F910F919B
:1034D0000895DF92EF92FF920F931F93CF93DF93A4
:1034E000CDB7DEB760970FB6F894DEBF0FBECDBF85
:1034F0007C018B011016110654F5F7018491319669
:10350000D490F2E0EF0EF11C8F3F41F46D2D70E08E
:1035100080E090E00E941E1ED12C13C02E2DDE01F3
:103520001196F701AD019E2F921B9D1520F49491E9
:103530009D933196F8CFED0CF11C6D2D90E00E941B
:10354000C30DED2DF0E032960E1B1F0BD3CF60960E
:103550000FB6F894DEBF0FBECDBFDF91CF911F91A4
:103560000F91FF90EF90DF90089590E0FC0131976C
:10357000E231F10508F04EC08827EE58FF4F8F4F1B
:103580000C947D2F809180008F7703C08091800004
:103590008F7D80938000089580918000877FF9CF90
:1035A00084B58F7702C084B58F7D84BD08958091E6
:1035B000B0008F7703C08091B0008F7D8093B00002
:1035C0000895809190008F7707C0809190008F7D43
:1035D00003C080919000877F809390000895809130
:1035E000A0008F7707C08091A0008F7D03C08091DD
:1035F000A000877F8093A0000895809120018F779D
:1036000007C0809120018F7D03C080912001877FBA
:10361000809320010895CF93DF93282F30E0F901A4
:10362000E351F34F8491F901E955F34FD491F90136
:10363000EF59F34FC491CC2391F081110E94B51A38
:10364000EC2FF0E0EE0FFF1FE95BF34FA591B49173
:10365000EC91ED2381E090E021F480E002C080E075
:1036600090E0DF91CF910895CF92DF92EF92FF9299
:10367000CF93DF936C01990FEE08FF08F7FE13C09C
:103680006DE28AE495E00E947309EC0166277727D2
:10369000CB016C197D098E099F094AE00E94DE1F4B
:1036A000C80FD91F06C04AE0C701B6010E94DE1F3D
:1036B000EC0169E472E08AE495E00E941E178C0F29
:1036C0009D1FDF91CF91FF90EF90DF90CF900895F5
:1036D0008F929F92AF92BF92CF92DF92EF92FF9222
:1036E0000F931F93CF93DF9300D01F92CDB7DEB718
:1036F0007C014B015A016901FC01848D958D873253
:10370000934991F4F7018589823031F4F0E2AF0EEC
:10371000B11C005E1F4F08C0833031F420E2820EDE
:10372000911C80E2C80ED11CF70194A984A175A157
:1037300090FF19C099828A82DB82CC82AE014F5FF2
:103740005F4F64E090E00E94C30DF70186A1B9824B
:10375000AA821B830C83AE014F5F5F4F64E090E051
:103760000E94C30D3AC0A401682FC7010E94190F1F
:10377000F70166A177A1A501C7010E94190FF70102
:1037800084A985FF0EC0858980FF06C0102F002701
:10379000A02AB12A850105C0DC2CCC248C289D28C8
:1037A0006401F70162A573A5A401C7010E94190F66
:1037B000F70166A577A5A501C7010E94190FF701BA
:1037C00064A575A5A601C7010E94190FF70160A99C
:1037D00071A9A801C7010E94190F0F900F900F90B7
:1037E0000F90DF91CF911F910F91FF90EF90DF909D
:1037F000CF90BF90AF909F908F9008950F931F939D
:10380000CF93DF938B988A98E2E0F1E020812778CC
:103810002083A5982EB1277C2EB96081292F3327CC
:10382000A9014370552775E0440F551F7A95E1F7BC
:10383000462B40836EB1A9014C705527440F551F8C
:10384000440F551F462B4EB964B3A901407155274B
:10385000440F551F462B44BB6EB1A901407255273A
:103860005595479555954795462B4EB94081207CF7
:103870003327D3E035952795DA95E1F7242B20837C
:103880008998899A208127782083A5982EB1277C52
:103890002EB940819C012370332715E0220F331F7E
:1038A0001A95E1F7242B20834EB19C012C7033270D
:1038B000220F331F220F331F242B2EB944B39C0138
:1038C00020713327220F331F242B24BB4EB19C01C0
:1038D000207233273595279535952795242B2EB9BA
:1038E0002081807C992773E0959587957A95E1F7FB
:1038F000822B80838998899A01E011E0F801808108
:10390000877880839D988DB1877C8DB98A9A0E9433
:10391000A70CEC010E94A70CAC01889A8B9AF801C5
:103920008081886780839D9A8DB188638DB9CE012F
:10393000A0E0B0E0DC019927882760E070E08C010E
:103940009D01042B152B262B372BC901B801DF91C4
:10395000CF911F910F9108950F931F93CF93DF93F2
:103960008C01C0E0D0E0F801EC0FFD1F64916623EC
:1039700041F081EA94E00E94D013892B11F0219646
:10398000F2CFCE01DF91CF911F910F910895CF9388
:10399000DF930E94AC1CEC0169E472E081EA94E0E0
:1039A0000E941E178C0F9D1FDF91CF9108958FB736
:1039B000F894809152048FBF08958CBD9DBD0895E9
:1039C000FF920F931F93CF93DF93EC018A01F22EA6
:1039D00089819A81DC01ED91FC910280F381E02DD7
:1039E00019950817190739F46F2D89819A810E945A
:1039F000E31891E0811190E0892FDF91CF911F9121
:103A00000F91FF900895CF93DF93EC018B8181118B
:103A10001EC010927C0410927B0410929E0410929F
:103A20009D040E94C5188AEA94E190934F04809304
:103A30004E048BEA94E1909351048093500481E00A
:103A40008B83CE010E94031D982F882391F08881DB
:103A500091E09093A00480939F0410929E04109292
:103A60009D0461E089819A810E94E31891E08111AF
:103A700090E0892FDF91CF9108951F93CF93DF932B
:103A8000282F30E0F901E351F34F8491F901E95512
:103A9000F34FD491F901EF59F34FC491CC23C1F006
:103AA000162F81110E94B51AEC2FF0E0EE0FFF1FC8
:103AB000E35DF34FA591B4919FB7F894111104C041
:103AC0008C91D095D82302C0EC91DE2BDC939FBF64
:103AD000DF91CF911F910895CF92DF92EF92FF92E5
:103AE0000F931F93CF93DF93EC0188819981892BEA
:103AF00009F091C088859985892BE9F420E030E0B0
:103B000000E070E0E7E0F0E0AB01022E02C0559566
:103B100047950A94E2F741705527CF01821B930B1A
:103B200001C0440F8A95EAF7042B2F5F3F4F2830DE
:103B3000310551F701C0062F10E087E0E82EF12C87
:103B4000CC24C394D12C110F8A85877FE1F48D8515
:103B50008F3F49F0B6010E2C01C0660F0A94EAF7B8
:103B600060230E943D1D61E08C850E943D1D8E8575
:103B70008F3F29F00E940B1B892B09F052C060E097
:103B80008C850E943D1D8A85877F8430D9F461E051
:103B90008C850E943D1D8D858F3F49F0B6010E2C0E
:103BA00001C0660F0A94EAF760230E943D1D60E0A1
:103BB0008C850E943D1D8E858F3F21F00E940B1B3E
:103BC000892B89F581E0E81AF10808F0BCCF8885D7
:103BD0009985892BF1F420E030E080E0A12FB0E05E
:103BE000E7E0F0E0AD01022E02C0559547950A943A
:103BF000E2F741705527BF01621B730B01C0440FF0
:103C00006A95EAF7842B2F5F3F4F2830310551F733
:103C10000CC0812F0AC06EBD0DB407FEFDCF8EB55E
:103C200004C01160ACCF1160CDCFDF91CF911F9157
:103C30000F91FF90EF90DF90CF9008958F929F9219
:103C4000AF92BF92CF92DF92EF92FF926B017C0115
:103C50000E944F234B015C01C114D104E104F10423
:103C6000F1F00E944F23DC01CB0188199909AA09C0
:103C7000BB09883E9340A105B10570F321E0C21A4B
:103C8000D108E108F10888EE880E83E0981EA11C97
:103C9000B11CC114D104E104F10419F7DDCFFF9088
:103CA000EF90DF90CF90BF90AF909F908F9008954E
:103CB00081E080935304E1E0F1E0808188678083B4
:103CC0009D9A8DB188638DB9809A819A829A839AE0
:103CD000849A8B9A889A899A8C9A62E370E080E041
:103CE00090E00E941E1E8C9864E670E080E090E0F8
:103CF0000E941E1E8C9A64E670E080E090E00E94B4
:103D00001E1E40E050E060EB70E08AE495E00C9409
:103D1000190FCF93DF93EC0180915304811102C0FE
:103D20000E94581E8B988A98809102018778809310
:103D30000201A5988EB1877C8EB9409102018D2F2A
:103D400099279C012370332755E0220F331F5A9582
:103D5000E1F7242B209302014EB19C012C703327F4
:103D6000220F331F220F331F242B2EB944B39C0183
:103D700020713327220F331F242B24BB4EB19C010B
:103D8000207233273595279535952795242B2EB905
:103D900020910201807C9927F3E095958795FA950B
:103DA000E1F7822B809302018998899A8091020120
:103DB000877880930201A5988EB1877C8EB9209177
:103DC0000201CE0183709927A5E0880F991FAA955B
:103DD000E1F7822B809302012EB1CE018C709927DE
:103DE000880F991F880F991F822B8EB924B3CE019B
:103DF00080719927880F991F822B84BB2EB1CE0129
:103E0000807299279595879595958795822B8EB980
:103E100080910201C07CDD2753E0D595C7955A9566
:103E2000E1F7C82BC09302018998899A809101011A
:103E30008778809301019D988DB1877C8DB98A9A8E
:103E40000E94A70C889A8B9A2091010128672093E1
:103E500001019D9A2DB128632DB9DF91CF9108956D
:103E60002F923F924F925F926F927F928F929F928A
:103E7000AF92BF92CF92DF92EF92FF920F931F9378
:103E8000CF93DF9300D01F92CDB7DEB73C015B012B
:103E90004901290183E0480E511CE12CF12C85E0F9
:103EA00090E09C838B8326EF222E33243A943CEFC0
:103EB000C32EDD24DA94942F9170998342704A8343
:103EC0009FEFE91AF90AC20188199909C80ED91E8B
:103ED0008981882311F12B813C81220F331F2F5FB1
:103EE0003F4F280D391D00E010E0A5018B819C811A
:103EF000481B590BB3016E0D7F1D8AE495E00E94AB
:103F00005E099201A5014E195F096B817C81660DE6
:103F1000771D8AE495E00E945E099A81911113C091
:103F20008B819C81E816F90694F5D7FC08C00197AF
:103F30009C838B8392E0290E311CC20CD31C82E03F
:103F4000480E511CBDCF2B813C81220F331F2F5FA8
:103F50003F4F280D391D00E010E0A5018B819C81A9
:103F6000481B590BB3016E197F098AE495E00E9442
:103F70005E099201A5014E195F09B3018B819C81F5
:103F8000681B790B8AE495E00E945E09C9CF0F9007
:103F90000F900F900F90DF91CF911F910F91FF9095
:103FA000EF90DF90CF90BF90AF909F908F907F90D9
:103FB0006F905F904F903F902F9008958F929F92B7
:103FC000AF92BF920F931F93CF93DF93CDB7DEB71E
:103FD000A1970FB6F894DEBF0FBECDBF19A2423035
:103FE00008F44AE08E010F5D1F4F842E912CA12C06
:103FF000B12CA50194010E945B2FE62FB901CA01E3
:1040000001501109EA3014F4E05D01C0E95CD80107
:10401000EC93232B242B252B61F7B8018AE495E040
:104020000E941E17A1960FB6F894DEBF0FBECDBF3B
:10403000DF91CF911F910F91BF90AF909F908F9084
:1040400008954F925F926F927F928F929F92AF925C
:10405000BF92CF92DF92EF92FF926B017C019B01A6
:10406000AC010E94A130882319F06FE973E01AC0F7
:1040700046015701E894B7F82FEF3FEF4FE75FE7AE
:10408000C501B4010E94A130811112C02FEF3FEF92
:104090004FE75FE7C501B4010E94372E181644F4BC
:1040A00063EA73E08AE495E00E941E177C0183C0F6
:1040B0002FEF3FEF4FE75FE4C701B6010E949C304E
:1040C00018161CF467EA73E0EDCF2FEF3FEF4FE7D0
:1040D0005FECC701B6010E94372E87FDF3CF20E0C9
:1040E00030E0A901C701B6010E94372E87FF0BC03F
:1040F0006DE28AE495E00E9473095C01F7FAF0949E
:10410000F7F8F09402C0A12CB12C2AE037ED43EA75
:104110005BE3C701B6010E948F2F2B013C010E9477
:104120006D306B017C010E943C2E9B01AC01C301F0
:10413000B2010E948E2F2B013C014AE0C701B6015B
:104140000E94DE1F7C01EA0CFB1C6EE28AE495E013
:104150000E947309E80EF91E20E030E040E251E4CD
:10416000C301B2010E949D2E2B013C010E946D30C3
:104170004B01A12CB12C4AE0C501B4010E94DE1F05
:10418000E80EF91EC501B4010E943C2E9B01AC0152
:10419000C301B2010E948E2F20E030E040E251E4E2
:1041A0000E949D2E0E946D3080E090E04AE00E94C7
:1041B000DE1FE80EF91E69E472E08AE495E00E94D1
:1041C0001E178E0D9F1DFF90EF90DF90CF90BF9038
:1041D000AF909F908F907F906F905F904F900895D9
:1041E000CF92DF92EF92FF920F931F93CF93DF93C3
:1041F000EC016B019B012A503109E12CF12C09E102
:1042000010E0AC0168E671E08AE495E00E94A01538
:1042100025962EE030E041E0BE01C601835A9E4F54
:104220000E94301F2EE030E042E0BE0188E691E0BF
:10423000DF91CF911F910F91FF90EF90DF90CF9082
:104240000C94301F6F927F928F929F92AF92BF9289
:10425000CF92DF92EF92FF920F931F93CF93DF9352
:104260001F921F92CDB7DEB78C016B01DC01169651
:104270008C91169717969C91179789839A83AD9086
:10428000BC901197A114B10409F492C019964C91F5
:1042900050E0F501848195818417950708F4E1C009
:1042A000808191E09093A00480939F0410929E04DB
:1042B00010929D0420E0BE016F5F7F4FC5010E94F8
:1042C000E01CF82E882309F4CCC0D50114968D91FA
:1042D0009C911597029708F4C4C080917A048111CB
:1042E000FCCFF501208181E080937A0480937904EA
:1042F0009FEF9093780410927704809376048093D4
:10430000750490917504822F880F892B8093750412
:1043100080917404813061F410927404809175046A
:104320008093BB008091BC0083FDF8CF85EC01C079
:1043300085EE8093BC0080917A048130E1F3809116
:104340007704823018F49091770401C092E0A4E5DC
:10435000B4E0EDE7F4E080E0891721F02D9121939E
:104360008F5FFACF10927C0480937B04823009F037
:1043700078C0D50111968D919C911297DC01ED9139
:10438000FC910284F385E02D1995F8018387D5010E
:1043900011968D919C911297DC01ED91FC91028414
:1043A000F385E02D1995F8018487F1105CC07CC07D
:1043B000D8011296ED90FC901397E114F10409F4E2
:1043C00050C014962D913C9115972115310511F48B
:1043D000806809C02230310511F48F7704C0213084
:1043E000310511F4806C8983F8016184712CD70147
:1043F0008D919C911197892B41F01296ED91FC9132
:104400001397808191810E94DD1C60E0F701838514
:104410000E943D1DCE0101964C015C01C501881929
:10442000990986159705B0F06FEFC7010E946C1DC2
:10443000D8011B968C936FEFC7010E946C1DF80189
:10444000848761E0D7011B968C910E943D1DFF245B
:10445000F39409C0F50161915F01C7010E946C1DD1
:10446000DDCFF12C21C0D8011A968C911A978111B9
:104470000CC01C968C911C9790E0982F8827F60111
:10448000918380831B962C910CC0D8011B968C9134
:104490001B9790E0982F8827F601918380831C96C4
:1044A0002C91822B918380838F2D0F900F90DF9121
:1044B000CF911F910F91FF90EF90DF90CF90BF9021
:1044C000AF909F908F907F906F9008958F929F9262
:1044D000AF92BF92CF92DF92EF92FF920F931F9312
:1044E000CF93DF931F921F92CDB7DEB78C01DC0113
:1044F0001F964D935D936D937C9352971A968C9172
:104500001A97882319F01C964C9302C0F801438730
:10451000452F562F672F7727882321F0D8011B9628
:104520004C9302C0F8014487D80116968C911697D7
:1045300017969C91179789839A83CD90DC90119759
:10454000C114D104B1F11996EC90F12C97012E5FB2
:104550003F4FF601848195818217930708F47CC050
:10456000808191E09093A00480939F0410929E0418
:1045700010929D04E114F10451F4B801655F7F4F7E
:1045800021E042E050E0C6010E94E01C66C081814B
:104590009281DC01ED91FC910280F381E02DA70175
:1045A000BE016F5F7F4F1995E816F90609F054C0F8
:1045B000E4CFF801E280F380E114F10409F44CC087
:1045C000248135812115310511F48F770AC02230FD
:1045D000310511F4806805C02130310519F48F7759
:1045E00080648983D8011996AC90B12CF701808141
:1045F0009181892B39F00280F381E02D80819181B6
:104600000E94DD1C60E0D7011B968C910E943D1D2D
:10461000FE0131964F016F01C601881999098A156B
:104620009B0598F0D8011B966C91C7010E946C1DE8
:10463000F8016485C7010E946C1D61E0D7011B96DB
:104640008C910E943D1D81E008C0F60161916F01CF
:10465000C7010E946C1DE0CF80E00F900F90DF91AA
:10466000CF911F910F91FF90EF90DF90CF90BF906F
:10467000AF909F908F900895CF93DF93BC018AE411
:1046800095E00E941E17EC0169E472E08AE495E06F
:104690000E941E178C0F9D1FDF91CF9108953FB789
:1046A000F8948091940590919505A0919605B0910C
:1046B000970526B5A89B05C02F3F19F00196A11DAF
:1046C000B11D3FBFBA2FA92F982F8827820F911DA8
:1046D000A11DB11DBC01CD0142E0660F771F881FEF
:1046E000991F4A95D1F708951F920F920FB60F9216
:1046F00011242F933F938F939F93AF93BF938091F8
:104700008F0590919005A0919105B09192053091FF
:10471000930523E0230F2D3720F40196A11DB11D31
:1047200005C026E8230F0296A11DB11D2093930515
:1047300080938F0590939005A0939105B093920577
:104740008091940590919505A0919605B09197055B
:104750000196A11DB11D8093940590939505A0939A
:104760009605B0939705BF91AF919F918F913F911F
:104770002F910F900FBE0F901F901895CF93DF933E
:10478000CDB7DEB7AA970FB6F894DEBF0FBECDBF88
:10479000789484B5826084BD84B5816084BD85B51C
:1047A000826085BD85B5816085BD80916E00816028
:1047B00080936E00109281008091810082608093CE
:1047C00081008091810081608093810080918000D0
:1047D0008160809380008091B10084608093B100FB
:1047E0008091B00081608093B000809191008260E0
:1047F00080939100809191008160809391008091DD
:1048000090008160809390008091A10082608093ED
:10481000A1008091A10081608093A1008091A000FF
:1048200081608093A00080912101826080932101AA
:10483000809121018160809321018091200181601C
:104840008093200180917A00846080937A00809127
:104850007A00826080937A0080917A0081608093F0
:104860007A0080917A00806880937A001092C1006B
:104870001092B7031092B8031092B9031092BA03C2
:104880001092BB031092BC031092BD031092BE03A2
:104890004FEF5FEF6FE77FE74093BF035093C00395
:1048A0006093C1037093C20380E090E0A0E8B0E0A1
:1048B0008093C3039093C403A093C503B093C6032E
:1048C0001092C7031092C8031092C9031092CA0332
:1048D0001092CB031092CC031092CD031092CE0312
:1048E0001092CF031092D0031092D1031092D203F2
:1048F0004093D3035093D4036093D5037093D603AE
:104900008093D7039093D803A093D903B093DA038D
:104910001092DB031092DC031092DD031092DE0391
:104920001092DF031092E0031092E1031092E20371
:10493000E091B104F091B204A2E0EA2EE082E091AD
:10494000AD04F091AE041082E091AF04F091B00498
:1049500080E180831092B904E091B504F091B6042F
:1049600086E08083E091B304F091B404808180619B
:104970008083E091B304F091B404808188608083E7
:10498000E091B304F091B404808180688083E09169
:10499000B304F091B40480818F7D808380E19CE03A
:1049A0000E94C71C80EF9BE00E94C71C86E090E03D
:1049B0000E94A6308C0180918205F80180838EE3ED
:1049C00095E092838183138280E290E095838483D3
:1049D000109381050093800510927C0410927B0453
:1049E00010929E0410929D040E94C5188AEA94E1D8
:1049F00090934F0480934E048BEA94E1909351047A
:104A000080935004FF24F394F801F382C8010E94BC
:104A1000031D9E012F5F3F4F3AA729A7882309F462
:104A200058C080E090E1A0E0B0E0809383059093CF
:104A30008405A0938505B09386058AE090E0A0E008
:104A4000B0E08093870590938805A0938905B09383
:104A50008A0580E090E0A0E0B0E480938B0590931D
:104A60008C05A0938D05B0938E0580918005909163
:104A700081051BA21CA21DA21EA29D8B8C8B1F8ACE
:104A80001E8AFD8E85E090E09B8F8A8FFE8EEC8ED5
:104A900040E050E160E070E0CE0144960E94662262
:104AA0008091800590918105188A198A1A8A1B8A3B
:104AB0009A8389831C821B82FA8618861F82FB8652
:104AC000E9864FE959E360E070E0CE0101960E946B
:104AD00066228DED9BE00E94C71C0E94581E80E05C
:104AE00090E00E94891E883034E5930709F451C094
:104AF0008032E4E59E0709F44FC08938994809F4EB
:104B00004EC087E690E00E94891E8734974409F4DE
:104B100049C08FEB90E00E940A0D613834E97307B9
:104B200009F443C0613185E1780709F441C060327E
:104B300095E1790709F43FC06138E5E17E07F1F1BD
:104B400061157441F1F18FEE90E00E940A0D673219
:104B50007349D1F184E090E00E94FE1B611530E8BA
:104B60007307A9F162357548A9F183ED90E00E94C1
:104B7000FE1B2DE6270F223080F1633D710579F190
:104B8000633D734D79F180E090E00E94891E8C01B5
:104B90002BC008E014E528C000E214E525C009E8B0
:104BA00012E122C007E413E81FC001E814E91CC0A9
:104BB00001E115E119C000E215E116C001E815E1B7
:104BC00013C004E118E610C007E213E90DC007E5C1
:104BD00013E80AC009E817E707C08B0105C003ED19
:104BE00010E002C003ED13ED1093AE030093AD038C
:104BF00089EC9BE00E94AC1C40E1BE016F5F7F4FDF
:104C0000C8010E940D2EE9A5FAA501900020E9F740
:104C100031978F0129A53AA5021B130BB8016F5FCD
:104C20007F4F80E090E00E94C7317C01009741F007
:104C3000FC011082BE016F5F7F4F0E94BA3202C03A
:104C400000E010E0A801B70181EA94E00E943D1362
:104C500069E472E081EA94E00E941E17C7010E9495
:104C60003E310091AD031091AE030E94581E109288
:104C70007D0510927C050115110511F401E413E97D
:104C800010936705009366050032F3E91F0709F4E6
:104C900025C108F06CC0093038E6130709F429C1B2
:104CA00080F5013895E1190709F485C1C8F401318F
:104CB000F5E11F0709F4ADC0003225E1120709F440
:104CC000B3C00435114009F0B4C182E090E1909383
:104CD0007F0580937E0564E870E085E49BE0B9C0C1
:104CE000083084E5180709F4F6C0003294E5190786
:104CF00009F410C10734174409F09BC181E096E123
:104D0000BAC00339F7E71F0709F481C178F4033803
:104D100037E7130709F493C0093887E7180709F440
:104D20009BC00537154709F084C1A3C00734E3E8E9
:104D30001E0709F4ACC078F40033124809F079C1B9
:104D400082E099E190937F0580937E0564E071E0B5
:104D500086E199E07EC0073533E8130709F4A2C065
:104D60000230134909F065C183E094E0F7C00833CD
:104D700093E9190709F4F0C018F50832F3E91F07A1
:104D800009F4BAC060F4063233E9130709F4C2C06B
:104D900008F0CDC00532134909F4AEC04AC1013351
:104DA000E3E91E0709F4ABC00533F3E91F0709F473
:104DB000A6C00932134909F03CC183E096E1CEC098
:104DC000083834E9130709F40CC178F4013894E980
:104DD000190709F4F0C00638E4E91E0709F4F6C023
:104DE0000134134909F025C1C2C0053025EB120773
:104DF00009F402C120F405391549D9F11AC1093065
:104E000095EB190709F403C10530154C09F4F4C0FA
:104E100010C183E090E090937F0580937E0562E16E
:104E200070E083E39BE048C083E194E090937F05CA
:104E300080937E0565E170E08EE19BE017C082E023
:104E400091E190937F0580937E0564E071E08AE1B3
:104E50009AE00E943E19EDC083E194E090937F05B3
:104E600080937E056DE570E089EB98E00E94691AF9
:104E7000E0C081E094E190937F0580937E0581E01E
:104E80008093AC0360E870E089E398E0EFCF81E0C5
:104E900094E190937F0580937E056EE870E08BEA45
:104EA00097E0E4CF83E194E090937F0580937E05C3
:104EB0006FE070E08CE997E00E94691A80EE91E063
:104EC000909351058093500580E491E090934F05B5
:104ED00080934E05AEC084E091E102C084E090E191
:104EE00090937F0580937E0568EE70E084EB96E0FA
:104EF000B0CF82E091E105C080E091E102C080E0A6
:104F000090E190937F0580937E056CED70E088EDD5
:104F100095E09FCF84E090E190937F0580937E059C
:104F20006CEC70E08CE095E00E943E190CC083E0D0
:104F300094E090937F0580937E0560E470E08CECB4
:104F400094E00E94691A80E991E090935105809362
:104F5000500580EF90E0BACF83E194E090937F0515
:104F600080937E056FE070E08DEB94E07FCF83E16E
:104F700094E090937F0580937E0583ED90E00E94FE
:104F8000FE1B672B682B692B89F461E370E08CE8CA
:104F900094E00E94691A80917E0590917F0584605B
:104FA000906190937F0580937E0543C064E770E035
:104FB00088E194E05BCF87E094E090937F05809355
:104FC0007E0568E570E080EC93E076CF83E094E0C6
:104FD00090937F0580937E056DE470E083E793E016
:104FE0006BCF83E194E090937F0580937E0567E328
:104FF00070E08CE393E060CF88E090E190937F05D0
:1050000080937E0560EC70E08CE792E022CF80E038
:1050100090E190937F0580937E0560EC70E08CEBCF
:1050200091E00E943E1980E991E0909351058093B0
:10503000500520917F05822F82958F7090E08170BE
:105040009927909369058093680560E08AE495E06C
:105050000E947D1060E08AE495E00E94361560E0D1
:1050600070E08AE495E00E948A0C61E08AE495E0B1
:105070000E947D1088248A94982C90925D058092DD
:105080005C0590925B0580925A0532E0F32EF09217
:105090005E0585EA90E090935705809356058AE077
:1050A00090E090935905809358058CE492E00E941B
:1050B0003C2381E080935E0588EC90E09093570557
:1050C000809356058EE190E09093590580935805A2
:1050D0008AE592E00E943C238EE391E0909357058D
:1050E0008093560586E391E0909359058093580587
:1050F0008AE692E00E943C2384E190E09093570579
:10510000809356054FE0C42ED12CD0925905C09201
:10511000580586E892E00E943C2387E390E0909354
:1051200057058093560509E110E010935905009347
:10513000580588EC90E00E94341B8BE490E090933B
:10514000570580935605109359050093580588E933
:1051500092E00E943C2382E791E090935705809370
:105160005605D0925905C09258058BE992E00E94ED
:105170003C2385E991E09093570580935605109361
:1051800059050093580588EE93E00E94341B8EEA7F
:1051900091E090935705809356051093590500931D
:1051A000580588E992E00E943C23F0925E05D09277
:1051B0005705C09256055CE3E52EF12CF092590597
:1051C000E09258058CEA92E00E943C2308E611E048
:1051D0001093570500935605F0925905E092580533
:1051E0006091B7037091B8038091B9039091BA03AD
:1051F0004AE00E94DE1F69E472E08AE495E00E94C2
:105200001E17D0925705C09256056FE5E62EF12C79
:10521000F0925905E092580589EC92E00E943C23F7
:105220001093570500935605F0925905E0925805E2
:105230006091BB037091BC038091BD039091BE034C
:105240000E94212070EEA72E77E0B72EB0925D0568
:10525000A0925C05B0925B05A0925A05E2E3EE2EA7
:10526000F12CF0925705E0925605F8E76F2E712C5D
:10527000709259056092580586EE92E00E943C2398
:105280001093570500935605709259056092580582
:105290006091C7037091C8038091C9039091CA03BC
:1052A0000E942120AFE16A2E712C70925D05609200
:1052B0005C0570925B0560925A05F0925705E0928A
:1052C0005605B1E94B2E512C509259054092580584
:1052D00080E093E00E943C2310935705009356050D
:1052E00050925905409258056091BF037091C003D8
:1052F0008091C1039091C2030E942120412C88EF2C
:10530000582E50925D0540925C0550925B0540928C
:105310005A05F0925705E09256059AEA292E312C4B
:1053200030925905209258058AE193E00E943C236F
:105330001093570500935605309259052092580551
:105340006091C3037091C4038091C5039091C6031B
:105350000E94212090925D0580925C0590925B05F1
:1053600080925A05D0925705C09256052DECC22E58
:10537000D12CD0925905C092580584E393E00E9445
:105380003C231093570500935605D0925905C092BF
:1053900058056091CF037091D0038091D103909113
:1053A000D2030E942120B0925D05A0925C05B092CC
:1053B0005B05A0925A05F0925705E092560536EE2D
:1053C000C32ED12CD0925905C092580581E593E0A7
:1053D0000E943C231093570500935605D09259051F
:1053E000C09258056091DB037091DC038091DD036E
:1053F0009091DE030E94212070925D0560925C0511
:1054000070925B0560925A05F0925705E09256053E
:10541000CC24CA94D12CD0925905C09258058BE661
:1054200093E00E943C231093570500935605D092B9
:105430005905C09258056091D3037091D4038091AF
:10544000D5039091D6030E94212050925D05409291
:105450005C0550925B0540925A05F0925705E09228
:10546000560558E1E52EFF24F394F0925905E09299
:10547000580585E893E00E943C231093570500935C
:105480005605F0925905E09258056091D703709146
:10549000D8038091D9039091DA030E9421206624D9
:1054A0006A94762C78E6872E99249394E0EE2E2E3B
:1054B000E7E03E2EFFE14F2E512C2FB7F89480915C
:1054C0008F0590919005A0919105B09192052FBF05
:1054D0005C016D019C01A60160E070E080E090E05D
:1054E000A090E303B090E403C090E503D090E603FE
:1054F000E090E703F090E8030091E9031091EA03DC
:105500000E94852F273C3105410551056105710534
:105510008105910509F008F485C18FB7F8940091D1
:105520008F051091900520919105309192058FBFC4
:105530000093E3031093E4032093E5033093E60321
:105540001092E7031092E8031092E9031092EA0325
:105550008091B7039091B803A091B903B091BA03B9
:105560000196A11DB11D8093B7039093B803A0933A
:10557000B903B093BA038091800590918105188A90
:10558000198A1A8A1B8A9A8389831C821B8281E06A
:105590008A8722E030E038872F838B8782E08987F3
:1055A000BE016C5E7F4FCE0101960E9422216C8964
:1055B0007D8983E0769567958A95E1F7660F771F79
:1055C000660F771F072E000C880B990B0E943E2E4A
:1055D0002FE632E143E85AE30E949D2E6B017C01E5
:1055E0006093BB037093BC038093BD039093BE0391
:1055F0009B01AC016091BF037091C0038091C10316
:105600009091C2030E949C30181644F4C092BF03CC
:10561000D092C003E092C103F092C203A7019601A9
:105620006091C3037091C4038091C5039091C60338
:105630000E94372E87FF08C0C092C303D092C403D4
:10564000E092C503F092C6032091CB033091CC03C6
:105650004091CD035091CE03C701B6010E948F2F18
:105660006B017C016093CB037093CC038093CD03DB
:105670009093CE036091B7037091B8038091B90302
:105680009091BA030E943C2E9B01AC01C701B60168
:105690000E94FB2F6093C7037093C8038093C903D4
:1056A0009093CA0380918005909181051BA21CA252
:1056B0001DA21EA29D8B8C8B1F8A1E8A11E01D8F3E
:1056C00085E090E09B8F8A8F1E8F02E00C8F4091C7
:1056D0008305509184056091850570918605CE0102
:1056E00044960E9466228091800590918105188AD7
:1056F000198A1A8A1B8A9A8389831C821B821A87B9
:10570000E4E0F0E0F887EF831B870987BE01695D5D
:105710007F4FCE0101960E9422216FA178A5072E0E
:10572000000C880B990B0E943E2E6B017C0160914E
:105730008705709188058091890590918A050E945E
:105740003C2E9B01AC01C701B6010E94FB2F6B01EF
:105750007C016093CF037093D0038093D103909327
:10576000D20320E030E0A9010E949C3087FD2CC0CC
:10577000A70196016091D3037091D4038091D50362
:105780009091D6030E949C30181644F4C092D30323
:10579000D092D403E092D503F092D603A7019601EC
:1057A0006091D7037091D8038091D9039091DA0367
:1057B0000E94372E87FF08C0C092D703D092D8032B
:1057C000E092D903F092DA032091DF033091E003F5
:1057D0004091E1035091E203C701B6010E948F2F6F
:1057E0006B017C016093DF037093E0038093E1031E
:1057F0009093E2036091B7037091B8038091B9036D
:105800009091BA030E943C2E9B01AC01C701B601E6
:105810000E94FB2F6093DB037093DC038093DD0316
:105820009093DE032FB7F89480918F0590919005A7
:10583000A0919105B09192052FBF5C016D019C0173
:10584000A60160E070E080E090E0A090AF03B0902F
:10585000B003C090B103D090B203E090B303F090D6
:10586000B4030091B5031091B6030E94852F273E23
:10587000334041055105610571058105910509F028
:1058800008F456C18FB7F89400918F0510919005D8
:1058900020919105309192058FBF0093AF03109333
:1058A000B0032093B1033093B2031092B30310926C
:1058B000B4031092B5031092B6036AE570E087E373
:1058C00090E00E94F02070925D0560925C057092FD
:1058D0005B0560925A0590925705809256052CE31D
:1058E00030E030935905209358056091B7037091CB
:1058F000B8038091B9039091BA034AE00E94DE1F79
:1059000069E472E08AE495E00E941E1766E470E0A4
:105910008AE590E00E94F02070925D0560925C053F
:1059200070925B0560925A059092570580925605D9
:105930008FE590E090935905809358056091BB03E3
:105940007091BC038091BD039091BE030E94212001
:1059500066E470E083E790E00E94F02030925D05FD
:1059600020925C0530925B0520925A059092570573
:1059700080925605E8E7F0E0F0935905E09358056A
:105980006091C7037091C8038091C9039091CA03C5
:105990000E94212066E470E08CE890E00E94F020F4
:1059A00050925D0540925C0550925B0540925A050D
:1059B000909257058092560521E930E030935905C1
:1059C000209358056091BF037091C0038091C1037B
:1059D0009091C2030E94212066E470E085EA90E085
:1059E0000E94F02000E018EF10935D0500935C0525
:1059F00010935B0500935A059092570580925605C7
:105A00008AEA90E090935905809358056091C3030A
:105A10007091C4038091C5039091C6030E94212018
:105A200066E470E088EC90E00E94F02070925D05E2
:105A300060925C0570925B0560925A0590925705E2
:105A4000809256058DEC90E090935905809358050F
:105A50006091CF037091D0038091D1039091D203D4
:105A60000E94212066E470E081EE90E00E94F02028
:105A700030925D0520925C0530925B0520925A05BC
:105A8000909257058092560586EE90E090935905C6
:105A9000809358056091DB037091DC038091DD03F6
:105AA0009091DE030E94212066E470E08AEF90E08E
:105AB0000E94F02050925D0540925C0550925B057B
:105AC00040925A0590925705809256058FEF90E0CC
:105AD00090935905809358056091D3037091D40336
