:100000000C94A5070C94D6070C94D6070C94D6072D
:100010000C94D6070C94D6070C94D6070C94D607EC
:100020000C94D6070C94D6070C94D6070C94D607DC
:100030000C94D6070C94D6070C94D6070C94D607CC
:100040000C94D6070C94D6070C94D6070C94D607BC
:100050000C94D6070C94D6070C94D6070C94302336
:100060000C94D6070C94A4230C947A230C94D607F2
:100070000C94D6070C94D6070C94D6070C94D6078C
:100080000C94D6070C94D6070C94D6070C94D6077C
:100090000C94D6070C94D6070C94D6070C94DA234C
:1000A0000C94D6070C94D6070C94D6070C94D6075C
:1000B0000C94D6070C94D6070C94D6070C94D6074C
:1000C0000C94D6070C94D6070C94D6070C94D6073C
:1000D0000C94D6070C94D6070C94D6070C94D6072C
:1000E0000C94D6070C9422080C94D8070C94C91FC2
:1000F0000C943B080C9431080C94501F0C94491636
:100100000C9426080C94C61F0C944E0A0C942E08CE
:100110000C94A80A0C9418100C94D9070C944F084E
:100120000C944F1C0C94700A0C940B080C946A1FCE
:100130000C94FE240C94631F0C9461080C944108E9
:100140000C94971F0C9453080C945C160C9457084D
:100150000C94DA070C9445080C94AB180C94E53316
:100160000C945D080C9449080C94441B0C947D1964
:100170000C94400F0C9410080C942A080C94370827
:100180000C94411F0C94DC190C94281B0C94481CF3
:100190000C94FB1C0C94620A0C9492120C94100B9D
:1001A0000C943F0A0C94381B0C94120A0C94FC1308
:1001B00000000000003E5B4F5B3E3E6B4F6B3E1C01
:1001C0003E7C3E1C183C7E3C181C577D571C1C5E18
:1001D0007F5E1C00183C1800FFE7C3E7FF001824EF
:1001E0001800FFE7DBE7FF30483A060E2629792999
:1001F00026407F050507407F05253F5A3CE73C5ACE
:100200007F3E1C1C08081C1C3E7F14227F22145FAA
:100210005F005F5F06097F017F006689956A606005
:1002200060606094A2FFA29408047E040810207EFF
:10023000201008082A1C08081C2A08081E10101084
:10024000100C1E0C1E0C30383E3830060E3E0E06CA
:10025000000000000000005F00000007000700141D
:100260007F147F14242A7F2A1223130864623649DC
:100270005620500008070300001C224100004122C4
:100280001C002A1C7F1C2A08083E080800807030C9
:100290000008080808080000606000201008040238
:1002A0003E5149453E00427F40007249494946213E
:1002B00041494D331814127F1027454545393C4AB2
:1002C00049493141211109073649494936464949C9
:1002D000291E000014000000403400000008142211
:1002E000411414141414004122140802015909067F
:1002F0003E415D594E7C1211127C7F494949363E80
:10030000414141227F4141413E7F494949417F0965
:100310000909013E414151737F0808087F00417F70
:1003200041002040413F017F081422417F4040406E
:10033000407F021C027F7F0408107F3E4141413E06
:100340007F090909063E4151215E7F091929462688
:100350004949493203017F01033F4040403F1F208C
:1003600040201F3F4038403F631408146303047863
:1003700004036159494D43007F4141410204081083
:1003800020004141417F04020102044040404040BE
:10039000000307080020545478407F28444438382C
:1003A00044444428384444287F385454541800089E
:1003B0007E090218A4A49C787F0804047800447D78
:1003C00040002040403D007F1028440000417F4015
:1003D000007C047804787C08040478384444443869
:1003E000FC1824241818242418FC7C080404084849
:1003F0005454542404043F44243C4040207C1C209A
:1004000040201C3C4030403C44281028444C9090F4
:10041000907C4464544C440008364100000077004E
:1004200000004136080002010204023C2623263C5B
:100430001EA1A161123A4040207A385454555921E6
:1004400055557941225454784221555478402054CE
:100450005579400C1E52721239555555593954541C
:10046000545939555454580000457C410002457D8B
:10047000420001457C407D1211127DF0282528F0B4
:100480007C545545002054547C547C0A097F4932E1
:10049000494949323A4444443A324A4848303A4158
:1004A00041217A3A42402078009DA0A07D3D424201
:1004B000423D3D4040403D3C24FF2424487E49438A
:1004C000662B2FFC2F2BFF0929F620C0887E0903FD
:1004D00020545479410000447D413048484A323824
:1004E0004040227A007A0A0A727D0D19317D262950
:1004F000292F28262929292630484D402038080848
:10050000080808080808382F10C8ACBA2F1028347B
:10051000FA00007B000008142A142222142A14086E
:100520005500550055AA55AA55AAFF55FF55FF007D
:100530000000FF00101010FF00141414FF00101032
:10054000FF00FF1010F010F0141414FC001414F746
:1005500000FF0000FF00FF1414F404FC1414171033
:100560001F10101F101F1414141F00101010F00083
:100570000000001F101010101F10101010F01000BD
:100580000000FF101010101010101010FF100000CD
:1005900000FF140000FF00FF00001F10170000FC08
:1005A00004F414141710171414F404F40000FF00DA
:1005B000F714141414141414F700F7141414171463
:1005C00010101F101F141414F4141010F010F00069
:1005D000001F101F0000001F14000000FC1400008A
:1005E000F010F01010FF10FF141414FF141010106E
:1005F0001F00000000F010FFFFFFFFFFF0F0F0F021
:10060000F0FFFFFF0000000000FFFF0F0F0F0F0FB4
:100610003844443844FC4A4A4A347E020206060200
:100620007E027E0263554941633844443C04407E67
:10063000201E2006027E020299A5E7A5991C2A49E0
:100640002A1C4C7201724C304A4D4D30304878486B
:1006500030BC625A463D3E494949007E0101017E57
:100660002A2A2A2A2A44445F444440514A444040AA
:10067000444A51400000FF0103E080FF00000808E9
:100680006B6B083612362436060F090F0600001869
:10069000180000001010003040FF0101001F010190
:1006A0001E00191D1712003C3C3C3C0000000000DD
:1006B00011007F96290001007F9628003A0155C05D
:1006C000021010C10141C50400228040360168B00B
:1006D0000100B102B011B40102B60302023BB7013E
:1006E000C63A0155F704A9512C82B701C6E8084063
:1006F0008A00002919A533C0020D0DC1024300C2B2
:100700000100C50400480048B40100B60302023BE2
:10071000E00F0F211C0B0E08499838091103141023
:1007200000E10F0F2F2B0C0E06477637071104231D
:100730001E00B00100B30402000000B40100D003A9
:10074000074218D103000710D2020102D3020102AE
:10075000D4020102C005123B000211C1031010882F
:10076000C50103C60102C80C0032364506163775AE
:1007700077540C00CC0100F603010100CF03008187
:1007800030ED0464031281E803851078CB05392C21
:10079000003402F70120EA020000B00100B10200BB
:1007A0001BB40100C00121C10111C5023F3CC701BA
:1007B000B5360148F20100260101E00F0F26240B97
:1007C0000E0954A8460C17090F0700E10F00191B6A
:1007D0000410072A473903060630380F360100B8DF
:1007E0000101C0010EB00100C10410100202C006D8
:1007F000003500000102C50104D2020104CA010053
:10080000EA0180B903FF83577F967F96B60125C022
:10081000065050013C1E08B4070240002A2A0D78F9
:100820007F01F20B1616030808080810041616FDBF
:1008300003110235B2050C0C003333B70135BB018F
:100840002BC00104C20201FFC30111C40120C60173
:100850000FD002A4A1E00ED000050E150D374347BE
:100860000915121619E10ED000050D0C062D444095
:100870000E1C1816193A01557F0A06000700B1022E
:100880000012B40102B60400202700CA0101CB0106
:1008900003C001137F14C501CCC60100C70104C801
:1008A0000103CC0106CD011CF9021515F3030A0260
:1008B0000AF603011000FA00FB00E2031E0254E0F6
:1008C00001017F0AE001037F0A01007F64E6030360
:1008D000FFFFB0072400031F01DF00B40803A000DE
:1008E0002E30000F00B607020D0010100008BA01EC
:1008F0000FB8020701F001007F01280011007F649A
:100900002900BE0606F001F00000D0010DB0010381
:10091000E2013FC00122E20100B00100C0010AB0C3
:1009200001000000000000000000000000000000C6
:100930000000FFFF0F000004006208000808000329
:10094000000C01030B5A02030609030317100403EA
:10095000002305030017060309630703090C0803B6
:100960000C100903322210001600110001011200C0
:1009700000001300010000013003010137020301F0
:10098000000D800200610201B0C1FFFF32000100D2
:1009900000010200000103003010090001000C00FA
:1009A0000000900000800F00000010020000110203
:1009B000EF001202000013028F0100050000010584
:1009C000000002055F000104010004040000FFFFB5
:1009D000320007000001FFFF3200000200000102A8
:1009E0000000000000000000000000000000000007
:1009F0000100A4000100FFFF0A00600000270800BA
:100A000008083000140231001537320004063300A4
:100A1000160E340011223500001536000785370008
:100A2000071438000314390020009000150010004E
:100A3000100411003702290046002A004600070072
:100A400000001200890113000011FFFF9600120040
:100A5000B90101000001020000020300301009008A
:100A600001000A0000000D0000000E0030006100CF
:100A700001006A0000008000000081000000820088
:100A80005F009200000193000107FFFF5000070084
:100A90000001E500F07801000001020000020300FF
:100AA00030100400000005000000080007020900E3
:100AB00000000A0000000C0000000D0000000F0004
:100AC00000001000000011000700120000001300D9
:100AD000000007000100FFFFC80010009016110081
:100AE0002702FFFF320012000D00FFFF320013004B
:100AF000001229000A002B000D00FFFF3200200029
:100B00000000210000003000000031000404320029
:100B100003003500050436000808370007043800D4
:100B20000303390007073C0004053D000808600086
:100B30000027610001006A000000800000008100C1
:100B40000000820000008300000084000000850097
:100B50000000900010009200000007003301E50043
:100B600000800000010001000001020000070300F6
:100B700030100400000008000202090000000A0012
:100B800000000C0000000D0000000F00000010002D
:100B90000000110007001200000013000000FFFF1A
:100BA00032001000B01711000700FFFF0A0012000A
:100BB0003A01FFFF0A001300001A29000C00FFFF92
:100BC0000A00300000003100050532000400350045
:100BD000060036000707370005013800020039001B
:100BE00007073C0004073D000708600000A76100FC
:100BF00001006A00000021000000200000008000C9
:100C000000008100000082000000830000008400DA
:100C1000000085000000900010009200000093008A
:100C200003009500100197000000980000000700E5
:100C30007301FFFF32000100000102000007030002
:100C4000301008000203090000000A00080010002C
:100C50000000110005001200000013000000FFFF5B
:100C600064001000B012FFFF320011000700FFFF08
:100C7000320012008C001300001729002000FFFF33
:100C80003200300000003100060132000101350061
:100C9000060136000302370000003800070739005C
:100CA00004023C0006013D000301600000A7610052
:100CB00001009000300007003301FFFF32001500F3
:100CC00030009A001000110020001000283412009B
:100CD000020013003810FFFF280012001200FFFF6F
:100CE00028001000203413004530FFFF460030007C
:100CF0000000310002043200070333000403340013
:100D000004003500010436000707370005033800EA
:100D10001006390010060100000102000003030064
:100D20003010080008080A00080060000027610071
:100D3000010090003E019200000193000001A0001C
:100D40000030A30010000700010007002100070089
:100D50002300070033000700330111001A001200BE
:100D6000213113006C001400494210000008FFFFFD
:100D70000A0011001A01FFFF0A0011001A03FFFF09
:100D80000A0011001A07FFFF0A0011001A0FFFFFE7
:100D90000A0011003A0FFFFF1E00010028010200A7
:100DA00000010300301007001210080003030B00BD
:100DB00000110C0000000F00011815002000500069
:100DC00001015100030652000804530000005400C2
:100DD0000506550006045600030357000303580098
:100DE00010005900001007001200FFFF2800070044
:100DF00013000700170009544654206964656E7497
:100E000069666965723A2030780009496E697469CB
:100E10006174696E67205446542E2E2E0009496E67
:100E2000697469616C697A696E6720494E412D3237
:100E300031392073656E736F722E2E2E00506F77CE
:100E40006572206D6F6E69746F722028766572739B
:100E5000696F6E20312E322E3000000022002500F6
:100E600028002B002E003100340002010000050193
:100E700008010B0105050505070508080808020219
:100E800002020A0A08080404040401010101010124
:100E900001010303030303030303040707070C0C07
:100EA0000C0C0C0C0C0C02020202060606060606CE
:100EB00006060B0B0B0B0B0B0B0B01021020200873
:100EC00008102040102040800201020108040201A5
:100ED0000102040810204080804020100804020114
:100EE000800402018040201008040201080402016D
:100EF00001020408102040800102040810204080F4
:100F000000000A0B02090C0D0E0807030401000083
:100F100000000000000000000000000000000000D1
:100F2000000000000000000000000000121110008E
:100F300000000000000000000000000000000000B1
:100F4000000000000000FE24E53311241FBECFEF97
:100F5000D1E2DEBFCDBF00E00CBF25E0ACEBB3E0DB
:100F600001C01D92A23BB207E1F713E0A0E0B2E09E
:100F7000EAE7F1E700E00BBF02C007900D92AC3B3F
:100F8000B107D9F717E0C4EAD7E000E006C021971F
:100F90000109802FFE010E945B35C33AD10780E032
:100FA0000807A9F70E946B250C94AB380C9400003D
:100FB000089508950895282F30E0F901E050F14F89
:100FC0009491F901E654F14F44912C58314FF901B5
:100FD0002491222309F435C0992311F191509231C3
:100FE000F8F4E92FF0E08827E750F84F8F4F0C9482
:100FF0005B352A082E080B0822082608100831083D
:1010000037083B084108450849084F0853081008AD
:1010100057085D086108809180008F778093800079
:10102000E22FF0E0EE0FFF1FE65AF14FA591B491C9
:101030008FB7F894EC91611148C040954E234C93C2
:101040008FBF0895809180008F7DE8CF80918000D0
:10105000877FE4CF84B58F7784BDE2CF84B58F7D61
:10106000FBCF8091B0008F778093B000D9CF809173
:10107000B0008F7DF9CF809190008F7780939000A2
:10108000CFCF809190008F7DF9CF80919000877FA6
:10109000F5CF8091A0008F778093A000C1CF809181
:1010A000A0008F7DF9CF8091A000877FF5CF809140
:1010B00020018F7780932001B3CF809120018F7D15
:1010C000F9CF80912001877FF5CF4E2BB8CFFC015F
:1010D00080819181892B39F0A281B3819C911196F5
:1010E0008C919CBD8DBD83858F3F19F060E00C9481
:1010F000DB070895FC0183858F3F19F061E00C94B4
:10110000DB0708958230910538F0880F991F880F0A
:10111000991F05970197F1F70895AF92BF92CF926B
:10112000DF92EF92FF920F931F93CF93DF93EC0127
:1011300088819981892B89F06EBD0DB407FEFDCFA2
:10114000BEB48B2DDF91CF911F910F91FF90EF9047
:10115000DF90CF90BF90AF9008958885998511E07A
:10116000892B09F010E8AA24A394862F812309F083
:10117000A12C062F2C813D814E815F8160E271EAB6
:1011800087E090E00E943935F22EB02EE12CC22E7D
:10119000D12CFF2019F0C6010E9482088A85877F22
:1011A00009F042C08D858F3F89F0902F912381E017
:1011B00009F480E08A1551F0EF85F8898F89992329
:1011C00069F19081892B8083AA24A394E989FA8903
:1011D0008081998D892B8083FF2019F0C6010E94A0
:1011E00082088E858F3F39F0EB89FC898081988D4C
:1011F000892309F0E12AE989FA899081898D80950E
:10120000892380838E858F3F09F0BE2C8885998540
:10121000892BB9F5110F1111BCCF93CF9081809517
:1012200089238083A12CD2CFE989FA898081998D85
:10123000892B8083FF2019F0C6010E9482088D85CA
:101240008F3F49F0EF85F8898F89902F9123A9F07E
:101250009081892B8083E989FA899081898D809595
:10126000892380838E858F3F69F2EB89FC89808199
:10127000988D892339F2E12AC5CF90818095892301
:10128000E9CF1695C8CF8F929F92AF92BF92CF921F
:10129000DF92EF92FF920F931F93CF93DF937C0126
:1012A0004B016A01B22EA32E0E946708E401C80C0C
:1012B000D91CCC15DD0569F4CB2DDA2D0C0F1D1FC3
:1012C000C017D10759F06FEFC7010E948D088993AD
:1012D000F7CF6991C7010E948D08EBCFC7010E942B
:1012E0007A0881E0DF91CF911F910F91FF90EF90ED
:1012F000DF90CF90BF90AF909F908F9008958F9286
:101300009F92AF92BF92CF92DF92EF92FF920F9394
:101310001F93CF93DF937C01B62EA72E6A0149015C
:101320000E946708E401080D191DC017D10761F478
:10133000CB2DDA2DCC0EDD1ECC15DD0551F06991DB
:10134000C7010E948D08F8CF6991C7010E948D08DE
:10135000ECCFC7010E947A0881E0DF91CF911F9105
:101360000F91FF90EF90DF90CF90BF90AF909F9044
:101370008F9008953FB7F89480914504909146046A
:10138000A0914704B091480426B5A89B05C02F3F03
:1013900019F00196A11DB11D3FBFBA2FA92F982F9B
:1013A0008827BC01CD01620F711D811D911D42E096
:1013B000660F771F881F991F4A95D1F708958F925E
:1013C0009F92AF92BF92CF92DF92EF92FF926B010A
:1013D0007C010E94BA094B015C01C114D104E104F3
:1013E000F104B9F00E94BA09681979098A099B09C0
:1013F000683E73408105910580F321E0C21AD1084F
:10140000E108F10888EE880E83E0981EA11CB11C4B
:10141000E4CFFF90EF90DF90CF90BF90AF909F9080
:101420008F900895AF92BF92CF92DF92EF92FF928A
:101430000F931F93CF93DF936C017B018B01040FFC
:10144000151FEB015E01AE18BF08C017D10759F098
:101450006991D601ED91FC910190F081E02DC601DA
:101460001995892B79F7C501DF91CF911F910F91C4
:10147000FF90EF90DF90CF90BF90AF900895FC0168
:10148000538D448D252F30E0842F90E0821B930BE9
:10149000541710F0CF96089501970895FC01918D8F
:1014A000828D981761F0A28DAE0FBF2FB11D5D9692
:1014B0008C91928D9F5F9F73928F90E008958FEF34
:1014C0009FEF0895FC01918D828D981731F0828DE8
:1014D000E80FF11D858D90E008958FEF9FEF08953F
:1014E000FC01918D228D892F90E0805C9F4F821BA3
:1014F00091098F739927089580EC94E00E94700AF7
:1015000021E0892B09F420E0822F0895FC01A48DAD
:10151000A80FB92FB11DA35ABF4F2C91848D90E015
:1015200001968F739927848FA689B7892C93A089F8
:10153000B1898C91837080648C93938D848D981382
:1015400006C00288F389E02D80818F7D8083089515
:10155000EF92FF920F931F93CF93DF93EC0181E003
:10156000888F9B8D8C8D98131AC0E889F9898081AA
:1015700085FF15C09FB7F894EE89FF896083E889DD
:10158000F98980818370806480839FBF81E090E0CF
:10159000DF91CF911F910F91FF90EF900895F62E5C
:1015A0000B8D10E00F5F1F4F0F731127E02E8C8DF6
:1015B0008E110CC00FB607FCFACFE889F98980813B
:1015C00085FFF5CFCE010E94860AF1CFEB8DEC0F9F
:1015D000FD2FF11DE35AFF4FF0829FB7F8940B8F58
:1015E000EA89FB8980818062CFCF0F931F93CF93CD
:1015F000DF938C01D0E0C0E0F801EC0FFD1F649197
:10160000662341F080EC94E00E94A80A892B11F037
:101610002196F2CFCE01DF91CF911F910F910895C6
:10162000CF93DF93EC01888D8823B9F0AA89BB8919
:10163000E889F9898C9185FD03C0808186FD0DC004
:101640000FB607FCF7CF8C9185FFF2CF808185FF25
:10165000EDCFCE010E94860AE9CFDF91CF910895A8
:1016600080E090E0892B29F00E947C0A81110E9481
:10167000000080E090E0892B49F080E090E0892B29
:1016800029F00E94000081110E94000080E090E09B
:10169000892B49F080E090E0892B29F00E9400001E
:1016A00081110E94000080E090E0892B49F080E0E9
:1016B00090E0892B29F00E94000081110C94000019
:1016C00008950F931F93CF93DF93EC018B01FE01DD
:1016D00084913196649122968F3799F470E090E06E
:1016E00080E00E94DF0960E070E06E5F7F4F061BC4
:1016F000170B101611065CF3DF91CF911F910F911C
:1017000008958B988A98909102019778909302019E
:10171000A5989EB1977C9EB94091020190E09C01F2
:1017200055E0220F331F5A95E1F72076242B2093A2
:1017300002014EB19C01220F331F220F331F207371
:10174000242B2EB944B39C01220F331F2072242B6B
:1017500024BB4EB19C01359527953595279528706A
:10176000242B2EB920910201A3E095958795AA9587
:10177000E1F78871822B809302018998899A50E061
:1017800040E0461708F045C0FE01E40FF51FE49164
:101790008A9A80910201877880930201A5988EB180
:1017A000877C8EB9709102018E2F90E09C01E5E05C
:1017B000220F331FEA95E1F72076272B20930201B1
:1017C0007EB19C01220F331F220F331F2073272B62
:1017D0002EB974B39C01220F331F2072272B24BB18
:1017E0007EB19C0135952795359527952870272B37
:1017F0002EB9E091020123E0959587952A95E1F7AE
:1018000088718E2B809302018998899A4F5F5F4F70
:10181000B8CFC60FD11D8B9A67CF8B988A9820912D
:101820000201277820930201A5982EB1277C2EB9BA
:1018300070910201292F30E0F901A5E0EE0FFF1FA2
:10184000AA95E1F7E076E72BE09302017EB1F9017A
:10185000EE0FFF1FEE0FFF1FE073E72BEEB974B31F
:10186000F901EE0FFF1FE072E72BE4BB7EB1F90137
:10187000F595E795F595E795E870E72BEEB970914A
:101880000201E3E035952795EA95E1F72871272BCA
:10189000209302018998899A209102012778209348
:1018A0000201A5982EB1277C2EB9709102019C01EE
:1018B000F5E0880F991FFA95E1F78076872B8093E2
:1018C00002017EB1C901880F991F880F991F80738B
:1018D000872B8EB974B3C901880F991F8072872B2B
:1018E00084BB7EB1C901959587959595879588703C
:1018F000872B8EB980910201F3E035952795FA95F3
:10190000E1F72871282B209302018998899A8A9AF5
:10191000FA01615008F43EC08191909102019778DC
:1019200090930201A5989EB1977C9EB940910201C7
:1019300090E09C0155E0220F331F5A95E1F7207685
:10194000242B209302014EB19C01220F331F220F42
:10195000331F2073242B2EB944B39C01220F331F55
:101960002072242B24BB4EB19C01359527953595CB
:1019700027952870242B2EB92091020133E09595EC
:1019800087953A95E1F78871822B809302018998B7
:10199000899ABFCF8B9A08958B988A98E2E0F1E0FC
:1019A000208127782083A5982EB1277C2EB9A0818D
:1019B000292F30E0A901B5E0440F551FBA95E1F792
:1019C00040764A2B4083AEB1A901440F551F440F06
:1019D000551F40734A2B4EB9A4B3A901440F551F9C
:1019E00040724A2B44BBAEB1A90155954795559518
:1019F000479548704A2B4EB9408153E0359527955D
:101A00005A95E1F72871242B20838998899A20819F
:101A100027782083A5982EB1277C2EB940819C0180
:101A2000A5E0880F991FAA95E1F78076842B808323
:101A30004EB1C901880F991F880F991F8073842B9D
:101A40008EB944B3C901880F991F8072842B84BB5F
:101A50004EB1C90195958795959587958870842B8A
:101A60008EB98081B3E035952795BA95E1F7287155
:101A7000282B20838998899A8A9A80818778808305
:101A8000A5988EB1877C8EB94081872F90E09C010C
:101A900055E0220F331F5A95E1F72076242B20833F
:101AA0004EB19C01220F331F220F331F2073242BB2
:101AB0002EB944B39C01220F331F2072242B24BB68
:101AC0004EB19C0135952795359527952870242B87
:101AD0002EB92081A3E095958795AA95E1F78871A5
:101AE000822B80838998899A808187788083A598C2
:101AF0008EB1877C8EB94081CB019B01B5E0220F6E
:101B0000331FBA95E1F72076242B20834EB19B0139
:101B1000220F331F220F331F2073242B2EB944B3FF
:101B20009B01220F331F2072242B24BB4EB19C013A
:101B300035952795359527952870242B2EB920812A
:101B4000A3E095958795AA95E1F78871822B80830C
:101B50008998899A8B9A089581E080936F04E1E0D7
:101B6000F1E08081886780839D9A8DB188638DB90B
:101B7000809A819A829A839A849A8B9A889A899A6F
:101B80008C9A62E370E080E090E00E94DF098C981C
:101B900064E670E080E090E00E94DF098C9A64E6E1
:101BA00070E080E090E00E94DF0970E060E080EB90
:101BB00090E00C94CC0CEF92FF920F931F93CF9375
:101BC000DF93EC01E62E80916F04811102C00E9428
:101BD000AC0D8B988A9880910201877880930201DE
:101BE000A5988EB1877C8EB9809102018093020105
:101BF0008EB18EB984B384BB8EB18EB9809102014F
:101C0000809302018998899A809102018778809354
:101C10000201A5988EB1877C8EB920910201CE0178
:101C200015E0880F991F1A95E1F78076822B809333
:101C300002012EB1CE01880F991F880F991F807362
:101C4000822B8EB924B3CE01880F991F8072822B0C
:101C500084BB2EB1CE019595879595958795887013
:101C6000822B8EB98091020153E0D595C7955A9584
:101C7000E1F7C871C82BC09302018998899A8A9AA2
:101C8000809101018778809301019D988DB1877CB7
:101C90008DB961E070E080E090E00E94DF0961E0D2
:101CA00070E080E090E00E94DF09889A8898889828
:101CB0008898D09100011CB102B3CCB1F090000122
:101CC000889A61E070E080E090E00E94DF09889AE5
:101CD000889888988898409100015CB1E2B39CB1E3
:101CE000F0910001889AEA946FEFE612D8CF889AB3
:101CF0008B9A809101018867809301019D9A8DB133
:101D000088638DB984E0C89F900111242072332725
:101D100088E0F89EB0011124607C7727262B602F85
:101D200070E07595679560717727262B612F70E0BD
:101D300075956795759567956C707727262B6D2F30
:101D400070E0B5E075956795BA95E1F76370772710
:101D5000262B64E0969FC0011124807298E0F99FC1
:101D6000B0011124607C862BE695E0718E2B569590
:101D700056955C70852B50E0C5E055954795CA9502
:101D8000E1F74370842B922FDF91CF911F910F9138
:101D9000FF90EF9008950F931F93CF93DF938C01E3
:101DA00060E00E94DB0DEC0161E0C8010E94DB0DE8
:101DB0008C01BE0190E080E0CB017727662730E000
:101DC00020E0602B712B822B932BDF91CF911F9101
:101DD0000F910895FF920F931F93CF93DF938C0180
:101DE00060E00E94DB0DEC0161E0C8010E94DB0DA8
:101DF000F82E62E0C8010E94DB0DAE0170E060E0E9
:101E0000742F66275527442700E030E020E0402B60
:101E10005F29622B732B292F30E0C901B0E0A0E0CD
:101E20008A019B01082B192B2A2B3B2BC901B801D6
:101E3000DF91CF911F910F91FF9008950F931F9302
:101E4000CF93DF93EC018B01FE0185919491FE010C
:101E500032962496659174918F3F980771F490E0C3
:101E600080E00E94DF09045011091016110664F386
:101E7000DF91CF911F910F9108950E94CC0CF3CF69
:101E8000FC01262F358D868D82958170982F96279F
:101E9000692F70E072A361A330FF0CC0821307C0EA
:101EA00080E290E050E040E060E00C940D0C81E2B4
:101EB00090E0F8CF878D90A1833927E7920741F012
:101EC00058F4843521E0920791F080329445C1F4B2
:101ED000626081E094E012C0863223E99207C1F388
:101EE000893025EB9207A1F38532924949F4660FB8
:101EF000771F660F771F636187E090E00C94CC0C2E
:101F000081E690E0FBCF8F929F92AF92BF92CF92EB
:101F1000DF92EF92FF920F931F93CF93DF9300D046
:101F20001F92CDB7DEB77C014B015A016901FC015C
:101F3000878D90A18632954151F4F701868980FF03
:101F400006C0C801841B950B81F50F5F1F4FF70179
:101F5000858D80FF31C085A599828A82DB82CC8203
:101F6000AE014F5F5F4F64E090E00E940D0CF701FF
:101F700081A9B982AA821B830C83AE014F5F5F4F98
:101F800064E090E00E940D0C0F900F900F900F9066
:101F9000DF91CF911F910F91FF90EF90DF90CF9045
:101FA000BF90AF909F908F9008952617370779F6CE
:101FB000C80ED91E8A01CBCFB40187A190A50E947B
:101FC000CC0CB501F70181A592A50E94CC0CC814D8
:101FD000D90419F40A151B05B9F2F701858D85FF9F
:101FE00008C0868980FF1EC0102F0027A02AB12AB2
:101FF0008501B401F70185A596A50E94CC0CB50119
:10200000F70181A992A90E94CC0CB601F70187A51E
:1020100090A90E94CC0CB801F70183A994A90E9451
:10202000CC0CB2CFDC2CCC248C289D286401E1CFD1
:102030002F923F924F925F926F927F928F929F92D8
:10204000AF92BF92CF92DF92EF92FF920F931F93C6
:10205000CF93DF9300D01F921F92CDB7DEB79D8341
:102060008C8380910004882349F0C701880F991F51
:102070008E739927E1ECEE22E82AF92A37FF05C092
:10208000620F731F319521953109260F371F77FF96
:1020900002C070E060E0EC81FD81808591852817A9
:1020A00039070CF4C9016C01C61AD70A17FF05C01D
:1020B000400F511F119501951109040F151F57FF6E
:1020C00002C050E040E0EC81FD812285338502179B
:1020D00013070CF498015901A41AB50A890101509B
:1020E00011099C01215031098C819D810E94830F2F
:1020F0008B988A98EC81FD8153A544A580910201BB
:10210000877880930201A5988EB1877C8EB9609103
:102110000201842F90E09C01A5E0220F331FAA95B5
:10212000E1F72076262B209302016EB19C01220F4D
:10213000331F220F331F2073262B2EB964B39C014B
:10214000220F331F2072262B24BB6EB19C013595C4
:102150002795359527952870262B2EB920910201B9
:1021600033E0959587953A95E1F78871822B8093B6
:1021700002018998899A80910201877880930201EF
:10218000A5988EB1877C8EB960910201852F942F1E
:102190009C0145E0220F331F4A95E1F72076262B5C
:1021A000209302014EB19C01220F331F220F331FD7
:1021B0002073242B2EB944B39C01220F331F2072AD
:1021C000242B24BB4EB19C01359527953595279539
:1021D0002870242B2EB920910201E3E09595879574
:1021E000EA95E1F78871822B809302018998899A98
:1021F0008A9ACA14DB042CF09A2D8B2D5601C92E15
:10220000D82E2F2D30E0890185E0000F111F8A950F
:10221000E1F70076C901880F991F880F991F182FC1
:102220001073C901880F991FB82FB072C901959515
:10223000879595958795982F987073E03595279594
:102240007A95E1F7822F8871A701E5E0440F551FC9
:10225000EA95E1F740769701220F331F220F331FD3
:10226000522F5073B701660F771F60729701359533
:10227000279535952795722F78709701E3E035956E
:102280002795EA95E1F7A22FA8712F2D287F30E03E
:102290004901880C991C880C991CF82DF073F9835E
:1022A0004901880C991CE82DE072EA834901959454
:1022B000879495948794F82DF870FB83E3E0359527
:1022C0002795EA95E1F7E22FE8712E2E9701F3E0CA
:1022D00036952795FA95E1F72C7F30E04901880C77
:1022E000991C880C991CF82DF0733F2E2901440C81
:1022F000551CE42DE0724E2E4901959487949594D7
:102300008794F82DF8705F2EF3E035952795FA95B0
:10231000E1F7E22FE8716E2EEE0CEE0CEE0CF12CD4
:102320009701220F331F220F331FF22FF0737F2EDE
:102330009701220F331F2072F701F595E795F59568
:10234000E795E870F3E0F594E794FA95E1F73E2D10
:102350003871E32E1C141D040CF0ABC03091010445
:102360004501332309F463C030910201377830937B
:102370000201A5983EB1377C3EB9309102013093FD
:1023800002013EB1F9813F2B3EB934B3FA813F2BB4
:1023900034BB3EB1FB813F2B3EB930910201322963
:1023A000309302018998899A3091020137783093ED
:1023B0000201A5983EB1377C3EB9309102013093BD
:1023C00002013EB133293EB934B3342934BB3EB1A6
:1023D00035293EB93091020136293093020189989E
:1023E000899A30910201377830930201A5983EB165
:1023F000377C3EB930910201309302013EB137295A
:102400003EB934B3322B34BB3EB13E2B3EB9309192
:1024100002013E29309302018998899A31E0831A9A
:10242000910809F0A1CFF1E0CF1AD10893CF3091F4
:102430000201377830930201A5983EB1377C3EB94E
:1024400030910201302B309302013EB1312B3EB965
:1024500034B33B2B34BB3EB1392B3EB93091020132
:10246000382B309302018998899A3091020137788C
:1024700030930201A5983EB1377C3EB930910201FC
:10248000342B309302013EB1352B3EB934B3362B99
:1024900034BB3EB1372B3EB9309102013A2B309319
:1024A00002018998899AF1E08F1A910809F0BFCF4B
:1024B000BACF8B9AEC81FD81858D80FF0AC0878D14
:1024C00090A186329541B1F4EC81FD81868980FF2F
:1024D00011C0EC81FD810285138501501109208511
:1024E00031852150310950E040E070E060E0CF01DB
:1024F0000E94830F0F900F900F900F900F90DF911D
:10250000CF911F910F91FF90EF90DF90CF90BF90F0
:10251000AF909F908F907F906F905F904F903F9083
:102520002F900895EF92FF920F931F93CF93DF9315
:102530007C01E90177FD4DC157FD4BC1FC01808550
:102540009185681779070CF044C1828593854817F7
:1025500059070CF03EC180910004882341F0C90165
:10256000880F991F8E739927C17CC82BD92B8A019C
:102570009B01C7010E94830F80910104882309F405
:102580002FC18B988A98F70143A554A58091020129
:10259000877880930201A5988EB1877C8EB960916F
:1025A0000201852F90E09C0175E0220F331F7A9580
:1025B000E1F72076262B209302016EB19C01220FB9
:1025C000331F220F331F2073262B2EB964B39C01B7
:1025D000220F331F2072262B24BB6EB19C01359530
:1025E0002795359527952870262B2EB92091020125
:1025F000B3E095958795BA95E1F78871822B809322
:1026000002018998899A809102018778809302015A
:10261000A5988EB1877C8EB960910201CA019C0198
:1026200015E0220F331F1A95E1F72076262B209311
:1026300002014EB19C01220F331F220F331F207362
:10264000242B2EB944B39C01220F331F2072242B5C
:1026500024BB4EB19C01359527953595279528705B
:10266000242B2EB92091020173E0959587957A95D8
:10267000E1F78871822B809302018998899A8A9A5E
:1026800080910201877880930201A5988EB1877CA2
:102690008EB9209102018D2F887F90E02093020156
:1026A0004EB19C01220F331F220F331F2073242BA6
:1026B0002EB944B39C01220F331F2072242B24BB5C
:1026C0004EB19C0135952795359527952870242B7B
:1026D0002EB920910201B3E095958795BA95E1F75F
:1026E0008871822B809302018998899A80910201D6
:1026F000877880930201A5988EB1877C8EB920914E
:102700000201CE01D3E096958795DA95E1F78C7FAB
:1027100090E0209302014EB19C01220F331F220F43
:10272000331F2073242B2EB944B39C01220F331F77
:102730002072242B24BB4EB19C01359527953595ED
:1027400027952870242B2EB92091020163E09595DE
:1027500087956A95E1F78871822B809302018998A9
:10276000899A80910201877880930201A5988EB1A1
:10277000877C8EB980910201CC0FCC0FCC0FD0E0BA
:10278000809302012EB1CE01880F991F880F991FE7
:102790008073822B8EB924B3CE01880F991F80726B
:1027A000822B84BB2EB1CE01959587959595879503
:1027B0008870822B8EB980910201A3E0D595C795D0
:1027C000AA95E1F7C871C82BC09302018998899A2C
:1027D0008B9ADF91CF911F910F91FF90EF90089509
:1027E000BE01F70183A594A5DF91CF911F910F91B1
:1027F000FF90EF900C94CC0CEF92FF920F931F93ED
:10280000CF93DF9300D000D000D01F92CDB7DEB7BA
:102810007C01862F8370F701868B962F917060FF65
:10282000E3C026813781F70131872087992309F496
:10283000DEC024813581F70133872287823009F495
:10284000DBC0833009F4DAC0813009F4D3C088E4F6
:102850008A87F701858D968D90FF03C02A852058C1
:102860002A8791FF04C02A8530E423272A8793FF13
:1028700004C02A8538E023272A87F701278D30A155
:1028800080FF00C12431F8E63F0709F0B9C09A85FE
:10289000892F88728A871F82892F85958074282FB7
:1028A0002260892F90E09595879580729927822BD9
:1028B00088878BE38987AE01495F5F4F63E086EBD2
:1028C00090E00E940D0C2AE230E0F70130A727A328
:1028D0008BE290E092A781A74CE250E054A743A777
:1028E00036A725A730AB27A792AB81AB94AB83ABC0
:1028F000AE01465F5F4F61E086E390E00E940D0C01
:102900008A8590E0F70194A383A3F701868980FF6D
:102910001CC0858D968D92FD18C087A190A521A51C
:1029200032A530A727A392A781A785A596A521A99F
:1029300032A936A725A792AB81AB87A590A923A979
:1029400034A930AB27A794AB83ABF701028513857D
:1029500001501109208531852150310950E040E0B6
:1029600070E060E0C7010E94830FF7016681778104
:10297000878D90A120E08732F3E99F0709F420E2D8
:10298000F701358D30FF39C119821A827B836C8340
:102990001D822E83AE014F5F5F4F66E083E390E0C0
:1029A0000E940D0C19821A82AE014F5F5F4F62E0E8
:1029B00087E390E00E940D0CF701858D80FF07C032
:1029C00050E040E060E083E190E00E940D0C2A9628
:1029D0000FB6F894DEBF0FBECDBFDF91CF911F9130
:1029E0000F91FF90EF900895248135811CCF2681AF
:1029F000378121CF88E22CCF88E92ACF88EF28CFF2
:102A0000273243E9340789F41F8281E388878A8566
:102A1000859585958595859588708987AE01495FEF
:102A20005F4F63E080EC90E04CCF233689E13807BC
:102A300049F02138E4E93E0729F02131F5E13F076B
:102A400009F041CF8A8587FF02C081608A878A8525
:102A500086FF02C082608A878A858F73233649E1A8
:102A6000340731F0213884E9380721F48A858F72E0
:102A70008A8729CF2131354109F025CF8A858F7E7C
:102A8000806CF6CF6A85862F062E000C990B2339B1
:102A9000F7E73F0751F0A8F52435E1E03E0709F4D8
:102AA0005CC02032F4E53F07A1F540E052E0F701B9
:102AB00050A747A341E052E052A741A742E052E0AD
:102AC00054A743A740E152E056A745A741E152E091
:102AD00050AB47A742E152E052AB41AB43E152E079
:102AE00054AB43AB882790782632F3E93F0721F0B7
:102AF0002032344509F071C067FD846060E071E305
:102B00006EC0263243E9340781F22930E5EB3E07F7
:102B100061F220E230E0F70130A727A321E230E0A4
:102B200032A721A722E230E034A723A720E530E036
:102B300036A725A721E530E030AB27A722E530E016
:102B400032AB21AB23E530E034AB23ABBC016627CD
:102B50007078776280E690E046C027E330E0F701C6
:102B600036A725A726E330E030AB27A729E330E0DE
:102B700032AB21AB28E330E034AB23AB20E230E0D2
:102B800030A727A321E230E032A721A722E230E0DC
:102B900034A723A7F4E06F9FB0011124662771705A
:102BA000882792708862682B792B81E090E00E94E0
:102BB000CC0C8A85682F70E075956795759567953B
:102BC0006870772783FD70616063F70174A363A366
:102BD00083E090E00E94CC0C98CE60E072E6682B17
:102BE000792B80E094E00E94CC0C6A85F4E06F9F22
:102BF000B001112466277170D8CF8339F7E79F079A
:102C0000D9F1F0F4803244E59407B1F18338E7E775
:102C10009E0731F184359140F1F46150710981E3EF
:102C200090E00E94CC0C70E060E082E390E00E94B3
:102C3000CC0C70E060E083E390E00E94CC0CC7CE47
:102C4000863223E99207C1F0893045EB9407A1F061
:102C50008532924911F3F70161A172A1626003C04C
:102C6000F70161A172A181E690E00E94CC0C70E0B6
:102C700060E08AE690E0E1CFF70161A172A16260B5
:102C800081E094E00E94CC0C70E060E084E094E08D
:102C9000D4CFEF92FF920F931F93DC01ED91FC9143
:102CA00000A0F1A1E02D780101E010E019951F913D
:102CB0000F91FF90EF900895EF92FF920F931F9363
:102CC000DC01ED91FC9100A0F1A1E02D78018901DA
:102CD00021E030E019951F910F91FF90EF9008953A
:102CE0000895FC016370668B84819581268137810C
:102CF000613039F0633029F09187808733872287EC
:102D00000895318720879387828708952F923F9275
:102D10004F925F926F927F928F929F92AF92BF92EB
:102D2000CF92DF92EF92FF920F931F93CF93DF9397
:102D3000CDB7DEB76A970FB6F894DEBF0FBECDBF32
:102D40009A8F898F7A8369834A01D22E18870F83DD
:102D50003701BC2CDC0159962D913C915A972115D5
:102D6000310509F015C118968D919C911997681736
:102D700079070CF0D7C11A968D919C914817590785
:102D80000CF0D0C14C2C512CB6E0CB9E600D711DC7
:102D900011247C876B87161617060CF0C3C1EA2D29
:102DA000F0E0FA87E98793E0EE0FFF1F9A95E1F7CD
:102DB000F88BEF87CF01840F951F181619060CF0BA
:102DC000B1C1A98DBA8D58968C91811104C0BFEA0A
:102DD000BD1508F4D394A98DBA8DED91FC9111978E
:102DE0000284F385E02DCD011995B5E0DB9EC0018D
:102DF0001124E981FA81FC83EB83312C212C9C0185
:102E000020553E4F388F2F8B4A2D50E05E8B4D8BD7
:102E1000EF89F88DE20DF31D44919E828D82D12CB5
:102E2000C12C69817A81620D731D7A8B698B842F25
:102E300090E09C8B8B8BE98DFA8DA081B18140FF56
:102E400082C0F1E0BF126FC0AF126DC01C96ED9151
:102E5000FC912F813885A4014C0D5D1D69897A890B
:102E6000898D9A8D1995EB89FC89F595E7954E2FFB
:102E70005FEFC51AD50A6D817E818D899E89680FA5
:102E8000791F7E836D8398E0C916D10481F6AFEF78
:102E90002A1A3A0AEB81FC81E40DF51DFC83EB83D1
:102EA000F5E02F16310409F0B3CF2F8138852615B0
:102EB0003705B9F0A98DBA8DED91FC91B1E0BB1247
:102EC00057C0AB1255C069817A816B5F7F4F008814
:102ED000F189E02D830128E030E0A401898D9A8DED
:102EE0001995A98DBA8DED91FC9111970688F789F6
:102EF000E02DCD016A960FB6F894DEBF0FBECDBFB0
:102F0000DF91CF911F910F91FF90EF90DF90CF90C5
:102F1000BF90AF909F908F907F906F905F904F90F9
:102F20003F902F9019941E96ED91FC91EF80F884BC
:102F300009851A8592014D815E816B817C81898D25
:102F40009A8D199590CF2F8138852615370509F46C
:102F50008ACF31E0B31207C0A31205C01C96ED91D1
:102F6000FC91930178CF1E96ED91FC917301E0CF17
:102F70006B857C85641975090684F785E02D7301DE
:102F80000F8518899201A401898D9A8D1995A9CF71
:102F9000F90134969491329745915491D91AB7E03A
:102FA000DB9E400D511D1124F901259134913C8B7C
:102FB0002B8BFA0125903490FA0132967490319659
:102FC0003491398B329664903196449041E04C159F
:102FD00018F04A1508F07FC0662D062C000C770B00
:102FE0007C836B83842D042C000C990B9E838D8332
:102FF000A98DBA8DED91FC9111970284F385E02D96
:10300000CD011995512CD12CC12CEA2DF0E0FA8775
:10301000E9872B2D30E03C872B87A401440D511DFF
:1030200047FC5A95588F4F8B69817A81660D711DC7
:1030300067FC7A957E876D877989C71608F051CF2E
:103040002C2D30E04D815E81420F531FA985BA853A
:103050004A9FC0014B9F900D5A9F900D1124FC0177
:10306000E80DF91DF88BEF87852D612C4F89588D60
:10307000420F531F5E8B4D8B671408F050C04424E1
:103080004394480E877041F4C1010196EB89FC8995
:10309000E20DF31DD4901C01D7FE19C0A98DBA8D85
:1030A000ED91FC91662D70E0B1E0BB1219C0AB123E
:1030B00017C02D853E85620F731F0484F585E02DB2
:1030C0002F8138854D895E89898D9A8D1995DD0C02
:1030D0006394842DD1CF1E821D821C821B8288CFD7
:1030E0004B815C81640F751FAB85BC856A9FC001F5
:1030F0006B9F900D7A9F900D112469817A81680FE2
:10310000791F0684F785E02DEF80F88409851A85FC
:103110009D014F855889898D9A8D1995D8CF570C67
:10312000C3948ACF6A960FB6F894DEBF0FBECDBFA8
:10313000DF91CF911F910F91FF90EF90DF90CF9093
:10314000BF90AF909F908F907F906F905F904F90C7
:103150003F902F9008958F929F92AF92CF92EF92CF
:10316000FF920F931F93CF93DF93EC01262F898D4E
:103170009A8D009709F051C06A30D1F41D861C86E3
:103180008D8948E0849F900111248E859F85820F50
:10319000931F9F878E8781E090E0DF91CF911F91F1
:1031A0000F91FF90EF90CF90AF909F908F900895E8
:1031B0006D3089F3CC88AD888F898823C1F08C85E8
:1031C0009D8536E0C39E800D911D1124488559854B
:1031D0004817590764F44E855F851D861C8638E0C4
:1031E000A39EC0011124840F951F9F878E87EA88B4
:1031F000FB88088919894E855F856C857D85CE01A0
:103200000E9486162C898C859D8546E0249F800D22
:10321000911D11249D878C87BECF6A3069F41D866D
:103220001C86FC013896E4912D898E859F85E29F4E
:10323000800D911D1124ADCF6D3009F4ACCFFC0190
:1032400034963491631708F4A6CF3296E491E617CA
:1032500008F4A1CFFC01329685909490462F431B31
:10326000342F47E0349F800C911C1124F4013296D6
:1032700034913196E4913323A9F1EE2399F1CC886E
:10328000F4013596E491AD884F89442301F10E2E67
:10329000000CFF0BE30FF11DCE9EA001CF9E500D41
:1032A00011246C857D85460F571F688579856417C5
:1032B00075076CF44E855F851D861C86FC0138966B
:1032C000E491AE9E400D511D11245F874E87EA8820
:1032D000FB88088919894E855F856C857D85CE01BF
:1032E0000E948616F4013496E4912C898C859D8584
:1032F000E29F800D911D11248DCF6F927F928F924E
:103300009F92AF92BF92CF92DF92EF92FF920F9374
:103310001F93CF93DF93EC016B015A0139014801F0
:10332000E881F9810284F385E02D1995E881F9811E
:103330000288F389E02D87019301A501B601CE0132
:103340001995A501480D591D41505109E881F98190
:103350000288F389E02D9301B601CE011995E88129
:10336000F9810088F189E02D9401A501B601CE0113
:103370001995C60CD71CB60161507109E881F98115
:103380000088F189E02D9401A501CE011995E8810D
:10339000F9810688F789E02DCE01DF91CF911F9149
:1033A0000F91FF90EF90DF90CF90BF90AF909F90E4
:1033B0008F907F906F9019946F927F928F929F92CF
:1033C000AF92BF92CF92DF92EF92FF920F931F9333
:1033D000CF93DF935C01EB016A014901380187015A
:1033E000DC01ED91FC916217730719F564167506FF
:1033F0002CF0962D872D3A01C92ED82E960126192C
:1034000037092F5F3F4F048CF58DE02DA301BE01DE
:10341000C5011995DF91CF911F910F91FF90EF900A
:10342000DF90CF90BF90AF909F908F907F906F90E4
:1034300008954615570591F42617370724F0892D6E
:103440004B01C22FD82F9E01281939092F5F3F4FFA
:10345000068CF78DE02DA601B401DACF0284F38546
:10346000E02D1995D501ED91FC910488F589E02DA9
:1034700083019401A601BE01C5011995D501ED9105
:10348000FC910688F789E02DC501DF91CF911F914E
:103490000F91FF90EF90DF90CF90BF90AF909F90F3
:1034A0008F907F906F901994EF92FF920F931F93DC
:1034B000DC011A960D911C911B9718962D913C9149
:1034C0001997ED91FC9100A0F1A1E02D7B0150E056
:1034D00040E070E060E019951F910F91FF90EF9030
:1034E00008954F925F926F927F928F929F92AF92C8
:1034F000BF92CF92DF92EF92FF920F931F93CF93E1
:10350000DF936C012B015A0139014801DC01ED9177
:10351000FC910284F385E02D1995E201640C751C81
:10352000D601ED91FC91C615D7055CF40088F189B0
:10353000E02D87019401A501BE01C60119952196D0
:10354000EFCF0688F789E02DC601DF91CF911F915B
:103550000F91FF90EF90DF90CF90BF90AF909F9032
:103560008F907F906F905F904F9019948F929F9261
:10357000AF92BF92CF92DF92EF92FF920F931F9381
:10358000CF93DF93EC015B014A016901E881F98186
:103590000284F385E02D199595012C0D3D1D2150D8
:1035A0003109E881F9810488F589E02D78018401E9
:1035B000A401B501CE011995E881F9810688F78942
:1035C000E02DCE01DF91CF911F910F91FF90EF90F1
:1035D000DF90CF90BF90AF909F908F9019948F9273
:1035E0009F92AF92BF92CF92DF92EF92FF920F9392
:1035F0001F93CF93DF93EC015B014A0169017801CE
:10360000E881F9810284F385E02D1995C80CD91C55
:10361000860101501109E881F9810488F589E02DBE
:103620009501A401B501CE011995E881F9810688BB
:10363000F789E02DCE01DF91CF911F910F91FF907F
:10364000EF90DF90CF90BF90AF909F908F901994A4
:10365000EF92FF920F931F93DC01ED91FC9100A07C
:10366000F1A1E02D19951F910F91FF90EF90089512
:103670000F931F93DC01ED91FC91068CF78DE02DEB
:1036800019951F910F9108950F931F93DC01ED91F0
:10369000FC91048CF58DE02D19951F910F910895E3
:1036A0002F923F924F925F926F927F928F929F9252
:1036B000AF92BF92CF92DF92EF92FF920F931F9340
:1036C000CF93DF9300D000D000D0CDB7DEB73C0160
:1036D0007C836B83598748872D83280181E090E0A4
:1036E0006C01C41AD50A1A01319421943108220CB4
:1036F000331C98012F5F3F4F3A832983F12CE12C33
:1037000088248394912CCB0101969F838E832885F6
:103710003985E216F3060CF06DC0A884B984D7FC95
:1037200009C0590131E0A31AB10882E0280E311C0A
:10373000C20CD31C9FEFE91AF90A22E0820E911CF9
:10374000C80CD91CAE14BF0444F4888599858A1529
:103750009B05D9F4B986A886DACF9501220F331FCD
:103760004B815C814A195B099D81913029F58981E2
:103770009A81280F391F10E000E0B701660D771D10
:1037800089E695E00E94441BE0CF9D81913039F598
:10379000940122503109240D351D68857985660D07
:1037A000771D10E000E04E815F814E195F0989E6C8
:1037B00095E00E94441BCECF89819A81280F391F42
:1037C00010E000E0B3016E197F0989E695E00E94E0
:1037D000441B288539852A153B0509F4BBCF940184
:1037E00022503109240D351DB30188859985681B48
:1037F000790BD7CF29960FB6F894DEBF0FBECDBF99
:10380000DF91CF911F910F91FF90EF90DF90CF90BC
:10381000BF90AF909F908F907F906F905F904F90F0
:103820003F902F900895CF92DF92EF92FF920F93E7
:103830001F93CF93DF93EC016B019B012A50310959
:10384000F12CE12C09E110E0AC0168E671E089E6B9
:1038500095E00E94281B25960EE010E021E045E04F
:1038600050E0BE01C601835A9E4F0E94501B22E0C9
:1038700045E050E0BE0188E691E00E94501BDF91D8
:10388000CF911F910F91FF90EF90DF90CF9008950F
:10389000DC01ED91FC910084F185E02D19942F92CB
:1038A0003F924F925F926F927F928F929F92AF92D0
:1038B000BF92CF92DF92EF92FF920F931F93CF931D
:1038C000DF9300D000D0CDB7DEB73C016A013E8364
:1038D0002D83FC82EB825801A41AB50AB7FE03C0FF
:1038E000B194A194B1088D809E80861A970A97FEA4
:1038F00003C09194819491088A149B045CF0902FEA
:10390000812F0D811E819D838E839C2D8D2D6B01BA
:10391000692F782F0C151D055CF09D818E817E83AB
:103920006D83692F782F902F812F8601C92ED82E75
:103930001601201A310A2B012D813E81421A530AA9
:1039400057FE03C0519441945108710137FE03C0E2
:103950003FEFE31AF30AF594E7948D819E81861771
:1039600097075CF5A1E0B0E0BA83A983C016D10641
:103970004CF1D301ED91FC910484F585E02D2B8170
:103980003C81A8016D817E818A149B041CF04D81CD
:103990005E81B801C3011995E418F508F7FE0AC065
:1039A0002D813E8189819A81280F391F3E832D8385
:1039B000E20CF31C0F5F1F4FD9CF2FEF3FEF3A837D
:1039C0002983D4CF26960FB6F894DEBF0FBECDBFA5
:1039D000DF91CF911F910F91FF90EF90DF90CF90EB
:1039E000BF90AF909F908F907F906F905F904F901F
:1039F0003F902F90089508952091DD03260F3327DF
:103A0000331F21323105ECF420919604FC0190E043
:103A100080E0243069F082E00895A091DD032191D7
:103A2000AC0143545C4FA40FB52FB11D2C930196EC
:103A3000861798F38091DD03680F6093DD0380E0C3
:103A4000089581E008951092960481E08093950492
:103A50001092700461E084E10E94DB0761E085E17F
:103A60000E94DB07E9EBF0E080818E7F808380811C
:103A70008D7F808388E48093B80085E48093BC00C8
:103A80000895CF93DF9391E09093BC038823B9F01E
:103A9000C091B800D091BA008091BC008A7B80931D
:103AA000BC0060E084E10E94DB0760E085E10E94E9
:103AB000DB070E94231DD093BA00C093B800DF91AA
:103AC000CF9108958F929F92AF92BF92CF92DF9243
:103AD000EF92FF920F931F93CF93DF93D091BF0488
:103AE000D13208F0D7C0182FC091BE040E94BA0985
:103AF0006B017C018091960481116BC082E0809300
:103B00009604109395048FEF80939404109293047D
:103B1000D0939204AEE9B4E0E2E7F4E080E0D81399
:103B200091C01092710480917104CC0FC82BC09386
:103B3000710480917004813009F088C01092700483
:103B40000E94BA096B017C01809171048093BB00D3
:103B50008091980490919904A0919A04B0919B044B
:103B6000892B8A2B8B2BA1F00E94BA090091980413
:103B70001091990420919A0430919B046C197D094D
:103B80008E099F09061717072807390708F442C04E
:103B90008091BC0083FDD8CF85EC8093BC000E944F
:103BA000BA096B017C0180919604823009F450C0FF
:103BB000809194048F3F09F46FC080919404803207
:103BC00009F46CC080919404803309F469C084E0E6
:103BD00026C08091980490919904A0919A04B09184
:103BE0009B04892B8A2B8B2B09F484CF0E94BA0962
:103BF0008090980490909904A0909A04B0909B04AF
:103C00006C197D098E099F0986169706A806B906C4
:103C100008F070CF809197040E94411D85E01092BA
:103C20009D041092BF0410929C04DF91CF911F91CC
:103C30000F91FF90EF90DF90CF90BF90AF909F904B
:103C40008F9008959D9191938F5F69CF85EEA5CF59
:103C50008091980490919904A0919A04B0919B044A
:103C6000892B8A2B8B2B09F49ECF0E94BA090091D5
:103C700098041091990420919A0430919B046C1936
:103C80007D098E099F09061717072807390708F0CD
:103C90008ACFC0CF81E0C3CF80E0C1CF82E0BFCF69
:103CA00083E0BDCF1F93CF93DF93EA01122FDC0196
:103CB00011968D919C91DC01ED91FC910280F38134
:103CC000E02D1995C817D90729F4812F0E94621D8C
:103CD00091E0811190E0892FDF91CF911F9108959C
:103CE000CF92DF92EF92FF920F931F93CF93DF93C8
:103CF0001F921F92CDB7DEB7FC014787508B618BB7
:103D0000728B8285882371F14487452F562F672F48
:103D10007727882349F143877F018BE0E80EF11C68
:103D20009681878199838A83C080D180C114D10410
:103D300009F443C0018510E098012E5F3F4FD60182
:103D400014968D919C918217930780F480E00F90D8
:103D50000F90DF91CF911F910F91FF90EF90DF9027
:103D6000CF9008954387D1CF4487D6CFF601818184
:103D70009281208131E030939C042093BE04109204
:103D80009D041092BF040115110541F421E042E0A9
:103D900050E0B701C6010E94521ED9CFDC01ED915F
:103DA000FC910280F381E02DA801BE016F5F7F4F7F
:103DB00019950817190751F6E9CFA281B381109719
:103DC00029F224813581018510E02330310579F411
:103DD0008E7F89839A830F5F1F4F9E012F5F3F4F16
:103DE00042E050E0B701CD010E947F09B0CF21151C
:103DF000310519F49F779983F0CF2230310511F402
:103E00009068F9CF2130310541F79F779064F3CF67
:103E1000CF93DF93EC018B818823A1F0888191E01F
:103E200090939C048093BE0410929D041092BF0452
:103E300081E00E94621D91E0811190E0892FDF9165
:103E4000CF91089510926E0410926D0410929D040B
:103E50001092BF040E94231D89ED97E090936A049D
:103E6000809369048AED97E090936C0480936B04CF
:103E700081E08B83CE010E94081F982F8111CECF45
:103E8000DDCFE0916E0480916D04E81730F4F0E02E
:103E9000E75BFB4F808190E008958FEF9FEF0895DF
:103EA00090916E0480916D042FEF3FEF981748F4C6
:103EB000E92FF0E0E75BFB4F208130E09F5F9093BC
:103EC0006E04C901089580916D0490916E04891B60
:103ED000990B0895CF92DF92EF92FF920F931F9369
:103EE000CF93DF937C01CB018A0120919C04222394
:103EF00089F0EB016B01C40ED51ECC15DD0569F010
:103F00006991D701ED91FC910190F081E02DC701FD
:103F10001995F3CF642F0E94FC1CC801DF91CF914B
:103F20001F910F91FF90EF90DF90CF900895CF9366
:103F3000DF931F92CDB7DEB7698320919C042223C3
:103F4000F9F02091BF04203258F021E030E0FC016C
:103F50003383228390E080E00F90DF91CF9108952A
:103F600080919D04E82FF0E0E256FB4F9981908309
:103F70008F5F80939D048093BF0481E090E0ECCF3D
:103F800061E0CE0101960E94FC1CF7CF90E080E03A
:103F90000895EF92FF920F931F93DC011A960D91F3
:103FA0001C911B9718962D913C911997ED91FC91BE
:103FB00000A0F1A1E02D7B0150E040E070E060E066
:103FC00019951F910F91FF90EF9008952F923F92B6
:103FD0004F925F926F927F928F929F92AF92BF9219
:103FE000CF92DF92EF92FF920F931F93CF93DF93C5
:103FF00000D000D0CDB7DEB77C017C836B830B96FD
:104000009E838D83D70116969C91169717968C9157
:10401000179799838A836D907C901197611471042E
:1040200009F44CC119964C9150E0F30184819581BB
:1040300084179507A8F0808191E090939C04809369
:10404000BE0410929D041092BF0420E0BE016F5F79
:104050007F4FC3010E94521ED12CC12C81111AC066
:1040600080E026960FB6F894DEBF0FBECDBFDF917D
:10407000CF911F910F91FF90EF90DF90CF90BF9065
:10408000AF909F908F907F906F905F904F903F90F8
:104090002F900895D30114968D919C9102E010E029
:1040A0000C191D098017910708F48C01F301508049
:1040B0000E94BA094B015C0180919604811176C07F
:1040C000B02EF0E2F01710F440E2B42E81E08093BD
:1040D000960421E082E090E0801B910BC816D9067F
:1040E00008F420E0209395049FEF9093940410929D
:1040F00093048FEF8B0D80939204A1E0A093710441
:1041000080917104550C582A50927104809170046A
:10411000813009F093C0109270040E94BA091B010B
:104120002C01809171048093BB0080919804909140
:104130009904A0919A04B0919B04892B8A2B8B2B14
:10414000A1F00E94BA0920919804309199044091FD
:104150009A0450919B0462197309840995092617E2
:1041600037074807590708F442C08091BC0083FD17
:10417000D8CFB5ECB093BC000E94BA091B012C014A
:1041800080919604813009F45DC0809193048B1571
:1041900010F4B0909304A2E7B4E0E9E4F4E080E026
:1041A0008B1551F19D9191938F5FFACF8091980477
:1041B00090919904A0919A04B0919B04892B8A2B29
:1041C0008B2B09F479CF0E94BA0920919804309181
:1041D000990440919A0450919B04681979098A09BD
:1041E0009B09261737074807590708F065CF8091C4
:1041F00097040E94411DB12C10926E04B0926D0480
:10420000B016110609F02CCF8D809E808C0C9D1C61
:104210005401C5018819990980179107A8F5D301A0
:1042200011968D919C91DC01ED91FC910284F385B6
:10423000E02D1995F50181935F01EBCFE5EEE09359
:10424000BC009ACF8091980490919904A0919A040F
:10425000B0919B04892B8A2B8B2B09F491CF0E9460
:10426000BA09209198043091990440919A04509190
:104270009B046219730984099509261737074807B3
:10428000590708F07DCFB3CFC00ED11EF2E0CF1694
:10429000D10408F4FFCEF7018285811142C08485E4
:1042A00090E0982F8827AB81BC8111969C938E93C8
:1042B0002385822B8D939C9381E0D3CE1296ED9132
:1042C000FC911397309709F4CBCE14962D913C9125
:1042D000159719964C9150E02330310591F4816087
:1042E00089839A834F5F5F4F02E010E02D813E810A
:1042F000BE016F5F7F4FCF010E9443098111CBCF79
:10430000B0CE2115310519F490689983EDCF223094
:10431000310511F49F77F9CF2130310529F7906CE1
:10432000F4CF838590E0982F8827AB81BC811196CC
:104330009C938E932485BDCFFB0101900020E9F76B
:104340003197AF01461B570BDC01ED91FC910280C8
:10435000F381E02D19948F929F92AF92BF920F93A9
:104360001F93CF93DF93CDB7DEB7A1970FB6F89425
:10437000DEBF0FBECDBF19A2423008F44AE08E0165
:104380000F5D1F4F842E912CB12CA12CA5019401FF
:104390000E943935E62FB901CA01EA3004F5E05D23
:1043A000D801EE938D01232B242B252B79F790E058
:1043B00080E0109729F0BD0189E695E00E949C21DC
:1043C000A1960FB6F894DEBF0FBECDBFDF91CF919F
:1043D0001F910F91BF90AF909F908F900895E95CCF
:1043E000DFCF4F925F926F927F928F929F92AF92A8
:1043F000BF92CF92DF92EF92FF926B017C01AC01F2
:104400009B010E948B3669E572E081111AC046015A
:104410005701E894B7F82FEF3FEF4FE75FE7C5018B
:10442000B4010E948B36811126C02FEF3FEF4FE77A
:104430005FE7C501B4010E9415341816E4F46DE578
:1044400072E089E695E00E949C217C0165E672E0BD
:1044500089E695E00E949C218E0D9F1DFF90EF90B4
:10446000DF90CF90BF90AF909F908F907F906F9094
:104470005F904F9008952FEF3FEF4FE75FE4C70144
:10448000B6010E94863618161CF461E672E0D9CF98
:104490002FEF3FEF4FE75FECC701B6010E941534E5
:1044A00087FDF3CF20E030E0A901C701B6010E94EB
:1044B0001534B12CA12C87FF0AC06DE289E695E086
:1044C0000E94AB185C01F7FAF094F7F8F0942AE038
:1044D00037ED43EA5BE3C701B6010E9479352B0152
:1044E0003C010E9457366B017C010E941A349B01EB
:1044F000AC01C301B2010E9478352B013C014AE0B6
:10450000C701B6010E94AB217C01EA0CFB1C6EE2E4
:1045100089E695E00E94AB18E80EF91E20E030E035
:1045200040E251E4C301B2010E947B342B013C0103
:104530000E9457364B01B12CA12C4AE0C501B401B1
:104540000E94AB21E80EF91EC501B4010E941A3485
:104550009B01AC01C301B2010E94783520E030E03C
:1045600040E251E40E947B340E94573690E080E0A4
:104570004AE00E94AB21E80EF91E68CFCF93DF938B
:10458000BC0189E695E00E949C21EC0165E672E0A1
:1045900089E695E00E949C218C0F9D1FDF91CF91B1
:1045A0000895CF93DF93BC01990F880B990B4AE0D4
:1045B0000E94AB21EC0165E672E089E695E00E947D
:1045C0009C218C0F9D1FDF91CF910895CF93DF9396
:1045D0000E94F50AEC0165E672E080EC94E00E942E
:1045E0009C218C0F9D1FDF91CF9108950E949638DA
:1045F00085ED8093BC008091980490919904A091DE
:104600009A04B0919B040796A11DB11D23E0B695B5
:10461000A795979587952A95D1F72091BC0024FD01
:1046200003C0109296040895409198045091990403
:1046300060919A0470919B04452B462B472B69F39C
:104640000097A105B10541F025E32A95F1F7000097
:104650000197A109B109E1CF809197040C94411D04
:104660001F920F920FB60F9211242F933F938F93A7
:104670009F93AF93BF938091410490914204A09186
:104680004304B09144043091400423E0230F2D37BC
:1046900058F50196A11DB11D20934004809341045B
:1046A00090934204A0934304B09344048091450442
:1046B00090914604A0914704B09148040196A11D31
:1046C000B11D8093450490934604A0934704B09392
:1046D0004804BF91AF919F918F913F912F910F907F
:1046E0000FBE0F901F90189526E8230F0296A11D6C
:1046F000B11DD2CF1F920F920FB60F9211240BB69D
:104700000F922F933F934F935F936F937F938F936A
:104710009F93AF93BF93EF93FF9380EC94E00E943D
:10472000860AFF91EF91BF91AF919F918F917F91F9
:104730006F915F914F913F912F910F900BBE0F9012
:104740000FBE0F901F9018951F920F920FB60F92E9
:1047500011240BB60F922F938F939F93EF93FF9398
:10476000E091D004F091D1048081E091D604F091E1
:10477000D70482FD1DC090818091D9048F5F8F7313
:104780002091DA04821741F0E091D904F0E0E0547E
:10479000FB4F958F8093D904FF91EF919F918F915B
:1047A0002F910F900BBE0F900FBE0F901F9018957A
:1047B0008081F2CF1F920F920FB60F9211240BB689
:1047C0000F922F933F934F935F936F937F938F93AA
:1047D0009F93AF93BF93EF93FF938091B900887F2E
:1047E000803609F44DC008F040C0883209F4A9C0F1
:1047F00028F5803109F49DC0C8F4882309F4FBC072
:10480000883009F496C0FF91EF91BF91AF919F91CD
:104810008F917F916F915F914F913F912F910F9069
:104820000BBE0F900FBE0F901F901895883109F4A2
:1048300088C0803241F78093940414C0803409F416
:104840009DC040F48033B9F38833E9F68093940433
:1048500085ECB0C0803509F485C0883509F496C070
:10486000883489F60E94F822CECF883909F48CC0AA
:1048700038F5883729F050F4883611F0803719F66A
:1048800083E0809396041092FF0357C0883809F4A0
:104890007BC0803919F0803809F0B5CF8091FF03D3
:1048A000803208F071C0E091FF0381E08E0F8093A9
:1048B000FF038091BB00F0E0E152FC4F80833DC0DC
:1048C000803B39F0E0F4803A09F479C0883A09F085
:1048D0009ACF84E0809396041092DE031092DD0359
:1048E000E0916904F0916A0419958091DD038111CA
:1048F0000FC081E08093DD031092BD0309C0803CAE
:1049000009F4A6CF883C09F4A3CF883B09F07BCFFC
:10491000E091DE0381E08E0F8093DE03F0E0E3544C
:10492000FC4F80818093BB009091DE038091DD037A
:1049300029C0809171048093BB0085EC8093BC00FA
:1049400062CF9091930480919204981758F5E0916A
:10495000930481E08E0F80939304F0E0EE58FB4FB8
:104960008081E9CFE091930481E08E0F80939304DE
:104970008091BB00F0E0EE58FB4F80839091930450
:10498000809192049817C8F285E8D8CFE0919304FB
:1049900081E08E0F809393048091BB00F0E0EE588D
:1049A000FB4F80838091950481115CCF81E08093DF
:1049B000700484EA8093BC001092960424CF85ECA6
:1049C0008093BC00109296048091FF03803230F4F3
:1049D000E091FF03F0E0E152FC4F10826091FF0391
:1049E00070E0E0916B04F0916C048FED93E0199509
:1049F0001092FF0308CF1092940434CFE0ECF4E05F
:104A00001382128288EE93E0A0E0B0E08483958365
:104A1000A683B7832DE032E03183208325EC30E09C
:104A20003587248724EC30E03787268720EC30E078
:104A3000318B208B21EC30E0338B228B22EC30E069
:104A4000358B248B26EC30E0378B268B118E128E23
:104A5000138E148EEDE5F5E0138212828483958324
:104A6000A683B7838FE192E091838083EEE9F5E03E
:104A70001182108280E48383108611861286138649
:104A80001486158616861786E9E6F5E013821282EB
:104A900020EF30E03583248380E491E097838683A0
:104AA0003187208793878287168A15861486178612
:104AB000168681E0858B848B2FEF3FEF338B228B23
:104AC000318B208B878B108E128E118E81E392E0BA
:104AD000918380830895CF93DF93CDB7DEB7A897F6
:104AE0000FB6F894DEBF0FBECDBF789484B5826058
:104AF00084BD84B5816084BD85B5826085BD85B582
:104B0000816085BD80916E00816080936E001092FF
:104B1000810080918100826080938100809181007A
:104B2000816080938100809180008160809380000B
:104B30008091B10084608093B1008091B000816069
:104B40008093B00080919100826080939100809169
:104B500091008160809391008091900081608093AA
:104B600090008091A10082608093A1008091A100BB
:104B700081608093A1008091A00081608093A0005B
:104B800080912101826080932101809121018160C7
:104B90008093210180912001816080932001809188
:104BA0007A00846080937A0080917A00826080939A
:104BB0007A0080917A00816080937A0080917A00F7
:104BC000806880937A001092C10010920C041092B9
:104BD0000D0410920E0410920F0410921004109203
:104BE000110410921204109213044FEF5FEF6FE75D
:104BF0007FE7409314045093150460931604709358
:104C0000170480E090E0A0E8B0E08093180490934F
:104C10001904A0931A04B0931B0410921C04109260
:104C20001D0410921E0410921F0410922004109272
:104C30002104109222041092230410922404109252
:104C400025041092260410922704409328045093C0
:104C5000290460932A0470932B0480932C0490936E
:104C60002D04A0932E04B0932F04109230041092C0
:104C700031041092320410923304109234041092D2
:104C800035041092360410923704E091D004F0916C
:104C9000D10482E08083E091CC04F091CD041082B5
:104CA000E091CE04F091CF0480E180831092D8048B
:104CB000E091D404F091D50486E08083E091D204A1
:104CC000F091D304808180618083E091D204F091DF
:104CD000D304808188608083E091D204F091D30472
:104CE000808180688083E091D204F091D304808138
:104CF0008F7D80838DE39EE00E94E6228DE19EE021
:104D00000E94E62280919E0590919F05892BA9F42F
:104D100086E090E00E949036FC018091A10580839E
:104D20008DE595E092838183138280E290E0958304
:104D30008483F0939F05E0939E05C0909E05D090DC
:104D40009F0510926E0410926D0410929D041092B3
:104D5000BF040E94231D89ED97E090936A0480931D
:104D600069048AED97E090936C0480936B04FF24B0
:104D7000F394F601F382C6010E94081F9E012F5F83
:104D80003F4F1901882309F45BC080E090E1A0E067
:104D9000B0E08093A2059093A305A093A405B093DF
:104DA000A5058AE090E0A0E0B0E08093A60590938E
:104DB000A705A093A805B093A90580E090E0A0E026
:104DC000B0E48093AA059093AB05A093AC05B09393
:104DD000AD0580919E0590919F051BA21CA21DA26E
:104DE0001EA29D8B8C8B1F8A1E8AFD8E85E090E013
:104DF0009B8F8A8FFE8EB2E0EB2EEC8E40E050E16E
:104E000060E070E0CE0144960E94701E80919E0585
:104E100090919F05188A198A1A8A1B8A9A83898316
:104E20001C821B82FA8618861F82FB86E9864FE960
:104E300059E360E070E0C1010E94701E8093A005FC
:104E40008AE09EE00E94E6220E94AC0D60E090E0C5
:104E500080E00E94DB0D7C018830944591F180E276
:104E6000E81684E5F80669F199E8E916F90609F407
:104E70007BC160E087E690E00E94DB0D37E4E32E23
:104E800033E8F32E87349744E1F08FEE90E00E94F0
:104E9000EA0E7B0167327349A1F081EA90E00E943B
:104EA000CB0E23E6E22E29E1F22E6130F1E67F07F8
:104EB00041F06F3F760709F076C0A6E2EA2EA5E141
:104EC000FA2EF0920304E092020486EF9DE00E9425
:104ED000F50A40E1B101C7010E94EB33F1010190F5
:104EE0000020E9F731977F01E218F308B7016F5FFF
:104EF0007F4F90E080E00E94B5376C01009709F485
:104F000047C1FC011082B1010E94A438A701B6017B
:104F100080EC94E00E94120A65E672E080EC94E076
:104F20000E949C21C114D10419F0C6010E942C37A3
:104F3000E0900204F09003040E94AC0D10928505ED
:104F400010928405F0928905E0928805F1E3EF164E
:104F5000F0E8FF0611F40C94973208F0F5C133E540
:104F6000E31630E2F30611F40C94F63208F075C142
:104F700091E1E91695E1F90609F4E3C208F022C1CE
:104F8000E9E9EE16F10411F40C94A83208F003C11B
:104F900080E091E1EA94EF2809F40BC110926E05CC
:104FA00010926D05CBC261153FEF730729F4F0E253
:104FB000EF2EF5E1FF2E85CF91EAE92E95E0F92E4F
:104FC0006115704F09F47DCF8FEB90E00E94EA0EDF
:104FD0007B0197E5E91693E8F90609F472CFA1E899
:104FE000EA16A4E9FA0609F46CCFE1E1EE16E5E170
:104FF000FE0609F466CFF0E2EF16F5E1FF06B9F21E
:1050000026E2E21625E1F20609F457CF31E8E3166D
:1050100035E1F30609F455CFE11484E1F80609F40B
:10502000A8C084ED90E00E94CB0E7B0190E1E916D0
:1050300093E5F90609F445CF87ED90E00E94CB0E89
:105040007B016133704809F43CCF8EEF90E00E9401
:10505000CB0E672F782F892F99277B0163357042FC
:1050600009F42FCF84E090E00E94CB0E7B01833EB9
:1050700031F4672B49F5E12CB3EEFB2E22CF8111E1
:1050800023C06115704801F58091060290910702D6
:10509000A091080289839A83AB83A10163E089EB25
:1050A00090E00E940D0C60E080ED90E00E94DB0D2E
:1050B00079E9E72EF12C893909F403CF8039E1F43D
:1050C00060E9E62EFE2CFDCE26E2E21625E1F20690
:1050D00009F4F3CE30EFE31639E8F30609F44EC0D5
:1050E00082E5E81685E8F80609F44DC091E1E91675
:1050F0009CEAF90609F4E5CE83ED90E00E94CB0E20
:10510000672F782F892F99277B016336714909F41E
:10511000D8CE83ED90E00E94CB0E872FE62EF72E9F
:10512000E9E2EE16E2E3FE0609F4CBCE83598230C3
:1051300008F4C7CE783909F4C4CE773709F4C1CE64
:10514000763109F4BECEF3EDEF16F10409F4B9CED1
:1051500023EDE216F20609F4B4CE60E090E080E0C0
:105160000E94DB0D7C01ADCE49E8E42E42E1F42E35
:10517000A8CE84E1E82E88E6F82EA3CEA5E3EA2E99
:10518000A7E7FA2E9ECEF9E8EF2EF7E7FF2E99CE8D
:10519000F12CE12CBBCE34E5E31631E0F30609F443
:1051A000C1C185E0E81685E1F80609F0F7CE84E094
:1051B00090E1909387058093860568ED70E08EE519
:1051C0009BE0BAC191E8E91695E1F90611F40C9457
:1051D0000233D0F4E0E2EE16E5E1FE0611F40C94A1
:1051E0004032F6E2EF16F5E1FF0609F0D7CE83E193
:1051F00094E090938705809386050CE010E06DE0C5
:10520000E62E69E0F62EB5C122E0E21626E1F206AE
:1052100011F40C94E83233E6E31639E1F30609F0B1
:10522000BDCE81E08093010483E59AE090938705E9
:105230008093860580EE91E09093700580936F05D2
:1052400080E293E090936E0580936D0503E510E096
:105250005AEBE52E58E0F52E8CC189E0E81688E679
:10526000F80611F40C94C23248F5A5E3EA16A5E459
:10527000FA0611F40C944D3298F4F9E2EF16F2E3C9
:10528000FF0609F08BCE83E096E09093870580932C
:10529000860500E410E04AE7E42E48E0F42E69C1F8
:1052A00020E1E21623E5F20611F40C94583238E0BE
:1052B000E31634E5F30609F47ACF70CE89E8E816F0
:1052C00087E7F80611F40C948A32C0F4A4E1EA16D8
:1052D000A8E6FA0611F40C947132E3E8EE16E7E75B
:1052E000FE0609F05BCE82E091E190938705809302
:1052F000860568E870E086E39CE01EC1F3E9EF16DE
:10530000F7E7FF0611F40C94393326E9E21627E794
:10531000F20609F043CE83E094E0909387058093F2
:10532000860580EE91E09093700580936F0580E490
:1053300091E090936E0580936D050DE010E03AEEDC
:10534000E32E36E0F32E15C138E3E31633E9F30616
:1053500011F40C94FA3208F064C095E2E91693E96E
:10536000F90609F44BC0A8F5E0E9EE16FE0611F4C3
:105370000C94A432F8F483E094E127E5E21623E8E4
:10538000F20609F00BCE909387058093860580EE98
:1053900091E09093700580936F0580E491E0909385
:1053A0006E0580936D0502E010E0B0E2EB2EB8E0F0
:1053B000FB2EDFC083E094E032E0E31633E9F3062E
:1053C00009F4A5C080E2E81683E9F80609F4EFCEF7
:1053D000E5CD99E2E91693E9F90611F40C94FE3251
:1053E00088F4E7E2EE16E3E9FE0611F40C94CE32FF
:1053F000F8E2EF16F3E9FF0609F0D0CD80E091E185
:105400000C94C43221E3E21623E9F20631F035E3CD
:10541000E31633E9F30609F0C1CD80E090E10C9486
:10542000C43289E8E81684E9F80608F044C097E831
:10543000E91694E9F90610F00C941F33A1E8EA1676
:10544000A4E9FA0611F40C941C33B0F4F0E4EF1A5A
:10545000F3E9FF0A22E0E216F10408F09FCD83E1B0
:1054600094E0909387058093860505E610E067E752
:10547000E62E67E0F62E7DC036E8E31634E9F30643
:1054800009F08CCD83E094E09093870580938605A6
:1054900080EE91E09093700580936F0580E491E039
:1054A00090936E0580936D050BE310E047EFE42EBB
:1054B00046E0F42E5EC089E0E81685EBF80611F4AC
:1054C0000C943933C0F483E194E1A1E1EA16ACEA2B
:1054D000FA06E9F0E5E0EE16E5EBFE0609F05ECD32
:1054E00088E090E1909387058093860560EB70E0FB
:1054F00082EE99E021C0F5E0EF16F5ECFF0681F3AE
:1055000083E19EE0E11423EEF20609F047CD90938B
:1055100087058093860503E010E07CEDE72E77E0B9
:10552000F72E27C082E090E190938705809386054F
:105530006CE970E08AE59DE00E941E0FF12CE12CE1
:1055400018C083E090E0909387058093860580EEF5
:1055500091E09093700580936F0580E491E09093C3
:105560006E0580936D0503E010E0EFE1EE2EE9E0BB
:10557000FE2E20918705822F82958F7090E081709A
:10558000992790938B0580938A05E114F10481F0AB
:1055900069E070E086EB96E00E94610BB801C701FC
:1055A0000E94610B66E070E080EB96E00E94610B68
:1055B00060E089E695E00E94FC1360E089E695E0F2
:1055C0000E94400F80918805909189058838944900
:1055D00009F0D8C11092000420EE3FEF50E040E007
:1055E00070E060E089E695E00E949212E0909405F8
:1055F000F09095058091860580FF03C09EE2E92E1C
:10560000F12C80918805909189058230964119F49A
:105610008EE2E82EF12C10E000E030E020E050E0D7
:1056200040E070E060E089E695E00E94830F8091A1
:10563000860580FD10C070E060E08091900590913B
:1056400091050E94CC0C70E060E0809192059091F1
:1056500093050E94CC0C8B988A98809102018778E0
:1056600080930201A5988EB1877C8EB9409102018A
:105670008F2D90E09C0105E0220F331F0A95E1F782
:105680002076242B209302014EB19C01220F331F60
:10569000220F331F2073242B2EB944B39C01220FF9
:1056A000331F2072242B24BB4EB19C0135952795C6
:1056B000359527952870242B2EB920910201E3E01F
:1056C00095958795EA95E1F78871822B8093020181
:1056D0008998899A80910201877880930201A59820
:1056E0008EB1877C8EB940910201C7019701F5E028
:1056F000220F331FFA95E1F72076242B2093020125
:105700004EB19701220F331F220F331F2073242B1A
:105710002EB944B39701220F331F2072242B24BBD0
:105720004EB1970135952795359527952870242BEF
:105730002EB92091020103E0959587950A95E1F72E
:105740008871822B809302018998899A8A9A809124
:1057500001018778809301019D988DB1877C8DB977
:105760004091860550918705809188059091890523
:1057700046FD13C0889A88988898889820910001DF
:105780002CB122B32CB120910001889A40FD05C0B4
:105790008938E2E19E0709F080C78131954161F4C3
:1057A000889A889888988898809100018CB182B3F3
:1057B0008CB180910001889ABA0164707727889A29
:1057C00088988898889844FF8AC7209100018CB1F6
:1057D000F2B3ECB19091000130E0A5E0359527954A
:1057E000AA95E1F72370869586958C70822B2F2FD2
:1057F00026952071822B04E0E09F900111242072F5
:10580000822B18E0919F90011124207C822B889A92
:10581000889A889888988898209100019CB1A2B3B2
:10582000FCB1E091000130E0B5E035952795BA95DF
:10583000E1F72370969596959C70922B2A2F2695CA
:105840002071922BA4E0FA9F900111242072922BD8
:10585000F8E0EF9F90011124207C922B889A889A7F
:1058600088988898889820910001ECB0A2B3FCB188
:10587000E091000130E015E0359527951A95E1F7A4
:105880002370E694E6940E2D0C70E02EE22A2A2F67
:1058900026952071E22A14E0F19F900111242072D4
:1058A000E22AA8E0EA9F90011124207C2E29889A00
:1058B000E92FF0E0672B09F4FDC6E22EF12CFE2C57
:1058C000EE24EE2408EFF02273E0EE0FFF1F7A952E
:1058D000E1F7E07EF770EE2AFF2A86958695869599
:1058E000E82A80910004882399F0C701E5E09695A5
:1058F0008795EA95E1F78072992797013695279564
:105900002F713327822B932BE0ECEE22E82AF92A21
:10591000889A8B9A809101018867809301019D9AF2
:105920008DB188638DB940FD14C00091730510914D
:1059300074050150110920917105309172052150B3
:10594000310950E040E070E060E089E695E00E94B7
:10595000830FFFE1EF16FFEFFF06A1F486E08983D6
:10596000A10161E08AE390E00E940D0C8091860520
:10597000909187058F7E909387058093860581E0BF
:105980008093000470E060E089E695E00E94C91F02
:1059900061E089E695E00E94FC13CC24CA94DC2CDB
:1059A000D0927C05C0927B05D0927A05C092790591
:1059B00012E010937D0510937E0585EA90E09093A8
:1059C0007605809375058AE090E090937805809342
:1059D000770588E692E00E94BE2281E080937D05F3
:1059E00080937E0588EC90E0909376058093750512
:1059F0008EE190E0909378058093770586E792E0BA
:105A00000E94BE228EE391E0909376058093750507
:105A100086E391E0909378058093770586E892E09D
:105A20000E94BE2280EE9FEF90937C0580937B05C1
:105A300090937A058093790584E190E090937605C0
:105A4000809375053FE0A32EB12CB0927805A0920B
:105A5000770582EA92E00E94BE2287E390E090936D
:105A600076058093750549E1E42EF12CF0927805D6
:105A7000E092770582E390E00E94D1228BE490E0EF
:105A80009093760580937505F0927805E0927705FE
:105A900084EB92E00E94BE2282E791E0909376052B
:105AA00080937505B0927805A092770587EB92E018
:105AB0000E94BE2285E991E090937605809375055A
:105AC000F0927805E092770588EB9BE00E94D12266
:105AD0008EEA91E09093760580937505F0927805B3
