:100000000C9410010C9441010C9441010C94410199
:100010000C9441010C9441010C9441010C94410158
:100020000C9441010C9441010C9441010C94410148
:100030000C9441010C9441010C9441010C94410138
:100040000C9441010C9441010C9441010C94410128
:100050000C9441010C9441010C9441010C94B8039F
:100060000C9441010C9441010C9441010C94410108
:100070000C9441010C9441010C9441010C944101F8
:100080000C9441010C9441010C9441010C944101E8
:100090000C9441010C9441010C9441010C94980280
:1000A0000C9441010C9441010C9441010C944101C8
:1000B0000C9441010C9441010C9441010C944101B8
:1000C0000C9441010C9441010C9441010C944101A8
:1000D0000C9441010C9441010C9441010C94410198
:1000E0000C9441010C94F0010C94FE010C94E70176
:1000F0000C941A020C9402040C94EA010C9402026F
:100100000C94DF010C94C4010C94C9010C940802F6
:100110000C94DB010C9410020C9416020C94FA015E
:100120000C94E3010C940C020C949E040C94F401C6
:1001300000002200250028002B002E003100340092
:1001400002010000050108010B0105050505070571
:1001500008080808020202020A0A08080404040443
:10016000010101010101010103030303030303036F
:10017000040707070C0C0C0C0C0C0C0C02020202FE
:1001800006060606060606060B0B0B0B0B0B0B0BE7
:100190000102102020080810204010204080020199
:1001A000020108040201010204081020408080407E
:1001B000201008040201800402018040201008047D
:1001C000020108040201010204081020408001021B
:1001D00004081020408000000A0B02090C0D0E08D4
:1001E0000703040100000000000000000000000000
:1001F00000000000000000000000000000000000FF
:1002000000001211100000000000000000000000BB
:1002100000000000000000000000000002049E0436
:1002200011241FBECFEFD1E2DEBFCDBF00E00CBF77
:1002300022E0A6E0B2E001C01D92A439B207E1F7C6
:1002400012E0A0E0B2E0E6ECFBE000E00BBF02C091
:1002500007900D92A630B107D9F711E0CFE0D1E0B9
:1002600000E006C021970109802FFE010E94A4042E
:10027000CE30D10780E00807A9F70E9411040C9442
:10028000D1050C94000020913602260F3327331F2E
:1002900021323105ECF420915A02FC0190E080E01B
:1002A000243069F082E00895A09136022191AC01DA
:1002B0004A5E5D4FA40FB52FB11D2C930196861792
:1002C00098F380913602680F6093360280E00895BB
:1002D00081E0089508958FEF9FEF08958FEF9FEFCE
:1002E000089580910F0290E091958195910908956C
:1002F000CF93DF93CB01EA01642F0E944301CE012B
:10030000DF91CF910895CF93DF931F92CDB7DEB7E2
:10031000698361E0CE0101960E94430181E090E093
:100320000F90DF91CF910895282F30E0F901EA5224
:10033000FE4F9491F901E057FE4F4491265B3E4FEA
:10034000F9012491222309F435C0992311F1915028
:100350009231F8F4E92FF0E08827EE54FE4F8F4FEA
:100360000C94A404E301E701C401DB01DF01C9012E
:10037000EA01F001F401FA01FE01020208020C0296
:10038000C901100216021A02809180008F778093B3
:100390008000E22FF0E0EE0FFF1FE05DFE4FA59121
:1003A000B4918FB7F894EC91611148C040954E23F9
:1003B0004C938FBF0895809180008F7DE8CF80910E
:1003C0008000877FE4CF84B58F7784BDE2CF84B58A
:1003D0008F7DFBCF8091B0008F778093B000D9CF15
:1003E0008091B0008F7DF9CF809190008F778093BE
:1003F0009000CFCF809190008F7DF9CF80919000B9
:10040000877FF5CF8091A0008F778093A000C1CF28
:100410008091A0008F7DF9CF8091A000877FF5CFDC
:10042000809120018F7780932001B3CF80912001AC
:100430008F7DF9CF80912001877FF5CF4E2BB8CFEC
:1004400090E080E008951F93CF93DF9385ED809334
:10045000BC008091120290911302A0911402B091FD
:1004600015020796A11DB11D23E0B695A795979596
:1004700087952A95D1F72091BC0024FD03C01092E6
:100480005A0252C04091120250911302609114021C
:1004900070911502452B462B472B69F30097A10558
:1004A000B10541F025E32A95F1F700000197A10974
:1004B000B109E1CF80911102C1E0C09310028823FD
:1004C00099F1D091B8001091BA008091BC008A7B5C
:1004D0008093BC0060E084E10E94940160E085E1CB
:1004E0000E94940110925A02C0935C0210925B0227
:1004F00061E084E10E94940161E085E10E94940141
:100500008091B9008E7F8093B9008091B9008D7F72
:100510008093B90088E48093B80085E48093BC00A0
:100520001093BA00D093B800DF91CF911F91089536
:100530001F920F920FB60F9211240BB60F922F93AA
:100540003F934F935F936F937F938F939F93AF935B
:10055000BF93EF93FF938091B900887F803609F4B1
:100560004DC008F040C0883209F4A7C028F580319A
:1005700009F49BC0C8F4882309F4F7C0883009F453
:1005800094C0FF91EF91BF91AF919F918F917F9117
:100590006F915F914F913F912F910F900BBE0F90F4
:1005A0000FBE0F901F901895883109F486C08032D5
:1005B00041F78093590214C0803409F49BC040F481
:1005C0008033B9F38833E9F68093590285ECAEC0E5
:1005D000803509F483C0883509F494C0883489F6DD
:1005E0000E942302CECF883909F48AC038F58837B3
:1005F00029F050F4883611F0803719F683E08093A3
:100600005A021092580255C0883809F479C08039CE
:1006100019F0803809F0B5CF80915802803208F087
:100620006FC0E091580281E08E0F80935802809154
:10063000BB00F0E0E85CFD4F80833BC0803B39F0BD
:10064000D0F4803A09F477C0883A09F09ACF84E070
:1006500080935A021092370210923602F0E0E0E0E6
:1006600019958091360281110FC081E08093360286
:100670001092160209C0803C09F4A8CF883C09F406
:10068000A5CF883B09F07DCFE091370281E08E0F46
:1006900080933702F0E0EA5EFD4F80818093BB00DB
:1006A000909137028091360229C080917F02809319
:1006B000BB0085EC8093BC0064CF90917E0280915A
:1006C0007D02981758F5E0917E0281E08E0F8093AD
:1006D0007E02F0E0E35AFD4F8081E9CFE0917E0297
:1006E00081E08E0F80937E028091BB00F0E0E35AA0
:1006F000FD4F808390917E0280917D029817C8F211
:1007000085E8D8CFE0917E0281E08E0F80937E0253
:100710008091BB00F0E0E35AFD4F808380915C0242
:1007200081115ECF81E080935B0284EA8093BC00FC
:1007300010925A0226CF85EC8093BC0010925A0288
:1007400080915802803230F4E0915802F0E0E85C89
:10075000FD4F10826091580270E088E392E0F0E073
:10076000E0E01995109258020CCF1092590238CF40
:100770001F920F920FB60F9211242F933F938F93D6
:100780009F93AF93BF9380910B0290910C02A09125
:100790000D02B0910E0230910A0223E0230F2D3793
:1007A00058F50196A11DB11D20930A0280930B02FA
:1007B00090930C02A0930D02B0930E02809106025A
:1007C00090910702A0910802B09109020196A11D23
:1007D000B11D8093060290930702A0930802B09384
:1007E0000902BF91AF919F918F913F912F910F90EF
:1007F0000FBE0F901F90189526E8230F0296A11D9B
:10080000B11DD2CFE0E8F2E01182108280E4838350
:10081000108611861286138614861586168617860C
:100820000895789484B5826084BD84B5816084BD68
:1008300085B5826085BD85B5816085BD80916E007E
:10084000816080936E0010928100809181008260AF
:1008500080938100809181008160809381008091EC
:1008600080008160809380008091B10084608093DB
:10087000B1008091B00081608093B00080919100C0
:1008800082608093910080919100816080939100BB
:10089000809190008160809390008091A10082609F
:1008A0008093A1008091A10081608093A10080913C
:1008B000A00081608093A0008091210182608093DC
:1008C000210180912101816080932101809120018B
:1008D00081608093200180917A00846080937A0007
:1008E00080917A00826080937A0080917A008160A2
:1008F00080937A0080917A00806880937A001092C9
:10090000C100C0E0D0E08FB7F89440910B02509145
:100910000C0260910D0270910E028FBF8FB7F89498
:1009200040910B0250910C0260910D0270910E02E9
:100930008FBF209741F30E940000E5CF8091800295
:10094000909181020C944805EE0FFF1F881F8BBF0A
:100950000790F691E02D19940F931F93CF93DF9397
:100960008230910510F482E090E0E0919202F091E3
:10097000930230E020E0B0E0A0E0309799F4211538
:10098000310509F44AC0281B390B24303105D8F54C
:100990008A819B816115710589F1FB0193838283B3
:1009A000FE0111C04081518102811381481759070E
:1009B000E0F04817590799F4109761F012960C93DC
:1009C000129713961C933296CF01DF91CF911F910E
:1009D0000F9108950093920210939302F4CF211582
:1009E000310551F04217530738F0A901DB019A0194
:1009F000BD01DF01F801C1CFEF01F9CF9093930260
:100A000080939202CDCFFE01E20FF31F8193919369
:100A10002250310939832883D7CF20919002309119
:100A20009102232B41F42091020230910302309372
:100A30009102209390022091000230910102211531
:100A4000310541F42DB73EB74091040250910502A3
:100A5000241B350BE0919002F0919102E217F3070D
:100A6000A0F42E1B3F0B2817390778F0AC014E5F1E
:100A70005F4F2417350748F04E0F5F1F50939102C8
:100A800040939002819391939FCFF0E0E0E09CCF60
:100A9000CF93DF930097E9F0FC0132971382128223
:100AA000A0919202B0919302ED0130E020E0109706
:100AB000A1F420813181820F931F20919002309107
:100AC00091022817390709F061C0F0939102E09371
:100AD0009002DF91CF910895EA01CE17DF07E8F584
:100AE0004A815B819E0141155105B1F7E901FB8304
:100AF000EA8349915991C40FD51FEC17FD0761F4A2
:100B0000808191810296840F951FE90199838883E2
:100B1000828193819B838A83F0E0E0E012968D913D
:100B20009C9113970097B9F52D913C911197CD01A8
:100B30000296820F931F2091900230919102281704
:100B4000390739F6309751F51092930210929202BC
:100B5000B0939102A0939002BCCFD383C283408113
:100B60005181840F951FC817D90761F44E5F5F4FFD
:100B700088819981480F591F518340838A819B81C5
:100B8000938382832115310509F0B0CFF09393024E
:100B9000E09392029ECFFD01DC01C0CF138212824E
:100BA000D7CF11E0CFE0D1E000E006C0802FFE01FA
:100BB0000E94A4042196011DC031D10780E00807DE
:060BC000A9F7F894FFCF35
:060BC60000009402800013
:00000001FF
